{
  "contractName": "PKMCoint",
  "abi": [
    {
      "inputs": [],
      "stateMutability": "nonpayable",
      "type": "constructor"
    },
    {
      "anonymous": false,
      "inputs": [
        {
          "indexed": true,
          "internalType": "address",
          "name": "owner",
          "type": "address"
        },
        {
          "indexed": true,
          "internalType": "address",
          "name": "spender",
          "type": "address"
        },
        {
          "indexed": false,
          "internalType": "uint256",
          "name": "value",
          "type": "uint256"
        }
      ],
      "name": "Approval",
      "type": "event"
    },
    {
      "anonymous": false,
      "inputs": [
        {
          "indexed": true,
          "internalType": "address",
          "name": "from",
          "type": "address"
        },
        {
          "indexed": true,
          "internalType": "address",
          "name": "to",
          "type": "address"
        },
        {
          "indexed": false,
          "internalType": "uint256",
          "name": "value",
          "type": "uint256"
        }
      ],
      "name": "Transfer",
      "type": "event"
    },
    {
      "inputs": [
        {
          "internalType": "address",
          "name": "owner",
          "type": "address"
        },
        {
          "internalType": "address",
          "name": "spender",
          "type": "address"
        }
      ],
      "name": "allowance",
      "outputs": [
        {
          "internalType": "uint256",
          "name": "",
          "type": "uint256"
        }
      ],
      "stateMutability": "view",
      "type": "function",
      "constant": true
    },
    {
      "inputs": [
        {
          "internalType": "address",
          "name": "spender",
          "type": "address"
        },
        {
          "internalType": "uint256",
          "name": "amount",
          "type": "uint256"
        }
      ],
      "name": "approve",
      "outputs": [
        {
          "internalType": "bool",
          "name": "",
          "type": "bool"
        }
      ],
      "stateMutability": "nonpayable",
      "type": "function"
    },
    {
      "inputs": [
        {
          "internalType": "address",
          "name": "account",
          "type": "address"
        }
      ],
      "name": "balanceOf",
      "outputs": [
        {
          "internalType": "uint256",
          "name": "",
          "type": "uint256"
        }
      ],
      "stateMutability": "view",
      "type": "function",
      "constant": true
    },
    {
      "inputs": [],
      "name": "decimals",
      "outputs": [
        {
          "internalType": "uint8",
          "name": "",
          "type": "uint8"
        }
      ],
      "stateMutability": "view",
      "type": "function",
      "constant": true
    },
    {
      "inputs": [
        {
          "internalType": "address",
          "name": "spender",
          "type": "address"
        },
        {
          "internalType": "uint256",
          "name": "subtractedValue",
          "type": "uint256"
        }
      ],
      "name": "decreaseAllowance",
      "outputs": [
        {
          "internalType": "bool",
          "name": "",
          "type": "bool"
        }
      ],
      "stateMutability": "nonpayable",
      "type": "function"
    },
    {
      "inputs": [
        {
          "internalType": "address",
          "name": "spender",
          "type": "address"
        },
        {
          "internalType": "uint256",
          "name": "addedValue",
          "type": "uint256"
        }
      ],
      "name": "increaseAllowance",
      "outputs": [
        {
          "internalType": "bool",
          "name": "",
          "type": "bool"
        }
      ],
      "stateMutability": "nonpayable",
      "type": "function"
    },
    {
      "inputs": [
        {
          "internalType": "address",
          "name": "",
          "type": "address"
        }
      ],
      "name": "mapQuestions",
      "outputs": [
        {
          "internalType": "bool",
          "name": "state",
          "type": "bool"
        }
      ],
      "stateMutability": "view",
      "type": "function",
      "constant": true
    },
    {
      "inputs": [],
      "name": "name",
      "outputs": [
        {
          "internalType": "string",
          "name": "",
          "type": "string"
        }
      ],
      "stateMutability": "view",
      "type": "function",
      "constant": true
    },
    {
      "inputs": [],
      "name": "symbol",
      "outputs": [
        {
          "internalType": "string",
          "name": "",
          "type": "string"
        }
      ],
      "stateMutability": "view",
      "type": "function",
      "constant": true
    },
    {
      "inputs": [],
      "name": "totalSupply",
      "outputs": [
        {
          "internalType": "uint256",
          "name": "",
          "type": "uint256"
        }
      ],
      "stateMutability": "view",
      "type": "function",
      "constant": true
    },
    {
      "inputs": [
        {
          "internalType": "address",
          "name": "to",
          "type": "address"
        },
        {
          "internalType": "uint256",
          "name": "amount",
          "type": "uint256"
        }
      ],
      "name": "transfer",
      "outputs": [
        {
          "internalType": "bool",
          "name": "",
          "type": "bool"
        }
      ],
      "stateMutability": "nonpayable",
      "type": "function"
    },
    {
      "inputs": [
        {
          "internalType": "address",
          "name": "from",
          "type": "address"
        },
        {
          "internalType": "address",
          "name": "to",
          "type": "address"
        },
        {
          "internalType": "uint256",
          "name": "amount",
          "type": "uint256"
        }
      ],
      "name": "transferFrom",
      "outputs": [
        {
          "internalType": "bool",
          "name": "",
          "type": "bool"
        }
      ],
      "stateMutability": "nonpayable",
      "type": "function"
    },
    {
      "inputs": [
        {
          "internalType": "address",
          "name": "_user",
          "type": "address"
        },
        {
          "internalType": "string[][]",
          "name": "_questionAndAnswers",
          "type": "string[][]"
        },
        {
          "internalType": "bool",
          "name": "_state",
          "type": "bool"
        }
      ],
      "name": "setAnswer",
      "outputs": [],
      "stateMutability": "nonpayable",
      "type": "function"
    },
    {
      "inputs": [
        {
          "internalType": "address",
          "name": "_user",
          "type": "address"
        }
      ],
      "name": "getAnswer",
      "outputs": [
        {
          "components": [
            {
              "internalType": "string[][]",
              "name": "question",
              "type": "string[][]"
            },
            {
              "internalType": "bool",
              "name": "state",
              "type": "bool"
            }
          ],
          "internalType": "struct PKMCoint.StructArrayExter",
          "name": "",
          "type": "tuple"
        }
      ],
      "stateMutability": "view",
      "type": "function",
      "constant": true
    },
    {
      "inputs": [],
      "name": "getbalance",
      "outputs": [
        {
          "internalType": "uint256",
          "name": "",
          "type": "uint256"
        }
      ],
      "stateMutability": "view",
      "type": "function",
      "constant": true
    }
  ],
  "bytecode": "0x60806040523480156200001157600080fd5b506040518060400160405280600881526020017f504b4d436f696e740000000000000000000000000000000000000000000000008152506040518060400160405280600381526020017f504b4d00000000000000000000000000000000000000000000000000000000008152508160039080519060200190620000969291906200024d565b508060049080519060200190620000af9291906200024d565b505050620000d0336b033b2e3c9fd0803ce8000000620000d660201b60201c565b620004a8565b600073ffffffffffffffffffffffffffffffffffffffff168273ffffffffffffffffffffffffffffffffffffffff160362000148576040517f08c379a00000000000000000000000000000000000000000000000000000000081526004016200013f906200035e565b60405180910390fd5b6200015c600083836200024360201b60201c565b8060026000828254620001709190620003b9565b92505081905550806000808473ffffffffffffffffffffffffffffffffffffffff1673ffffffffffffffffffffffffffffffffffffffff168152602001908152602001600020600082825401925050819055508173ffffffffffffffffffffffffffffffffffffffff16600073ffffffffffffffffffffffffffffffffffffffff167fddf252ad1be2c89b69c2b068fc378daa952ba7f163c4a11628f55a4df523b3ef8360405162000223919062000427565b60405180910390a36200023f600083836200024860201b60201c565b5050565b505050565b505050565b8280546200025b9062000473565b90600052602060002090601f0160209004810192826200027f5760008555620002cb565b82601f106200029a57805160ff1916838001178555620002cb565b82800160010185558215620002cb579182015b82811115620002ca578251825591602001919060010190620002ad565b5b509050620002da9190620002de565b5090565b5b80821115620002f9576000816000905550600101620002df565b5090565b600082825260208201905092915050565b7f45524332303a206d696e7420746f20746865207a65726f206164647265737300600082015250565b600062000346601f83620002fd565b915062000353826200030e565b602082019050919050565b60006020820190508181036000830152620003798162000337565b9050919050565b6000819050919050565b7f4e487b7100000000000000000000000000000000000000000000000000000000600052601160045260246000fd5b6000620003c68262000380565b9150620003d38362000380565b9250827fffffffffffffffffffffffffffffffffffffffffffffffffffffffffffffffff038211156200040b576200040a6200038a565b5b828201905092915050565b620004218162000380565b82525050565b60006020820190506200043e600083018462000416565b92915050565b7f4e487b7100000000000000000000000000000000000000000000000000000000600052602260045260246000fd5b600060028204905060018216806200048c57607f821691505b602082108103620004a257620004a162000444565b5b50919050565b611dc780620004b86000396000f3fe608060405234801561001057600080fd5b50600436106100f55760003560e01c80633950935111610097578063a457c2d711610066578063a457c2d71461029c578063a9059cbb146102cc578063dd62ed3e146102fc578063f196cd081461032c576100f5565b806339509351146102005780634d9b3d5d1461023057806370a082311461024e57806395d89b411461027e576100f5565b8063095ea7b3116100d3578063095ea7b31461016457806318160ddd1461019457806323b872dd146101b2578063313ce567146101e2576100f5565b80630389865e146100fa57806306fdde031461011657806307b51d9514610134575b600080fd5b610114600480360381019061010f91906113be565b61035c565b005b61011e610412565b60405161012b91906114b5565b60405180910390f35b61014e600480360381019061014991906114d7565b6104a4565b60405161015b919061171e565b60405180910390f35b61017e60048036038101906101799190611776565b610638565b60405161018b91906117c5565b60405180910390f35b61019c61065b565b6040516101a991906117ef565b60405180910390f35b6101cc60048036038101906101c7919061180a565b610665565b6040516101d991906117c5565b60405180910390f35b6101ea610694565b6040516101f79190611879565b60405180910390f35b61021a60048036038101906102159190611776565b61069d565b60405161022791906117c5565b60405180910390f35b6102386106d4565b60405161024591906117ef565b60405180910390f35b610268600480360381019061026391906114d7565b6106dc565b60405161027591906117ef565b60405180910390f35b610286610724565b60405161029391906114b5565b60405180910390f35b6102b660048036038101906102b19190611776565b6107b6565b6040516102c391906117c5565b60405180910390f35b6102e660048036038101906102e19190611776565b61082d565b6040516102f391906117c5565b60405180910390f35b61031660048036038101906103119190611894565b610850565b60405161032391906117ef565b60405180910390f35b610346600480360381019061034191906114d7565b6108d7565b60405161035391906117c5565b60405180910390f35b81600560008573ffffffffffffffffffffffffffffffffffffffff1673ffffffffffffffffffffffffffffffffffffffff16815260200190815260200160002060000190805190602001906103b2929190610ddf565b5080600560008573ffffffffffffffffffffffffffffffffffffffff1673ffffffffffffffffffffffffffffffffffffffff16815260200190815260200160002060010160006101000a81548160ff021916908315150217905550505050565b60606003805461042190611903565b80601f016020809104026020016040519081016040528092919081815260200182805461044d90611903565b801561049a5780601f1061046f5761010080835404028352916020019161049a565b820191906000526020600020905b81548152906001019060200180831161047d57829003601f168201915b5050505050905090565b6104ac610e3f565b600560008373ffffffffffffffffffffffffffffffffffffffff1673ffffffffffffffffffffffffffffffffffffffff16815260200190815260200160002060405180604001604052908160008201805480602002602001604051908101604052809291908181526020016000905b8282101561060e57838290600052602060002001805480602002602001604051908101604052809291908181526020016000905b828210156105fb57838290600052602060002001805461056e90611903565b80601f016020809104026020016040519081016040528092919081815260200182805461059a90611903565b80156105e75780601f106105bc576101008083540402835291602001916105e7565b820191906000526020600020905b8154815290600101906020018083116105ca57829003601f168201915b50505050508152602001906001019061054f565b505050508152602001906001019061051b565b5050505081526020016001820160009054906101000a900460ff1615151515815250509050919050565b600080610643610902565b905061065081858561090a565b600191505092915050565b6000600254905090565b600080610670610902565b905061067d858285610ad3565b610688858585610b5f565b60019150509392505050565b60006012905090565b6000806106a8610902565b90506106c98185856106ba8589610850565b6106c49190611963565b61090a565b600191505092915050565b600047905090565b60008060008373ffffffffffffffffffffffffffffffffffffffff1673ffffffffffffffffffffffffffffffffffffffff168152602001908152602001600020549050919050565b60606004805461073390611903565b80601f016020809104026020016040519081016040528092919081815260200182805461075f90611903565b80156107ac5780601f10610781576101008083540402835291602001916107ac565b820191906000526020600020905b81548152906001019060200180831161078f57829003601f168201915b5050505050905090565b6000806107c1610902565b905060006107cf8286610850565b905083811015610814576040517f08c379a000000000000000000000000000000000000000000000000000000000815260040161080b90611a2b565b60405180910390fd5b610821828686840361090a565b60019250505092915050565b600080610838610902565b9050610845818585610b5f565b600191505092915050565b6000600160008473ffffffffffffffffffffffffffffffffffffffff1673ffffffffffffffffffffffffffffffffffffffff16815260200190815260200160002060008373ffffffffffffffffffffffffffffffffffffffff1673ffffffffffffffffffffffffffffffffffffffff16815260200190815260200160002054905092915050565b60056020528060005260406000206000915090508060010160009054906101000a900460ff16905081565b600033905090565b600073ffffffffffffffffffffffffffffffffffffffff168373ffffffffffffffffffffffffffffffffffffffff1603610979576040517f08c379a000000000000000000000000000000000000000000000000000000000815260040161097090611abd565b60405180910390fd5b600073ffffffffffffffffffffffffffffffffffffffff168273ffffffffffffffffffffffffffffffffffffffff16036109e8576040517f08c379a00000000000000000000000000000000000000000000000000000000081526004016109df90611b4f565b60405180910390fd5b80600160008573ffffffffffffffffffffffffffffffffffffffff1673ffffffffffffffffffffffffffffffffffffffff16815260200190815260200160002060008473ffffffffffffffffffffffffffffffffffffffff1673ffffffffffffffffffffffffffffffffffffffff168152602001908152602001600020819055508173ffffffffffffffffffffffffffffffffffffffff168373ffffffffffffffffffffffffffffffffffffffff167f8c5be1e5ebec7d5bd14f71427d1e84f3dd0314c0f7b2291e5b200ac8c7c3b92583604051610ac691906117ef565b60405180910390a3505050565b6000610adf8484610850565b90507fffffffffffffffffffffffffffffffffffffffffffffffffffffffffffffffff8114610b595781811015610b4b576040517f08c379a0000000000000000000000000000000000000000000000000000000008152600401610b4290611bbb565b60405180910390fd5b610b58848484840361090a565b5b50505050565b600073ffffffffffffffffffffffffffffffffffffffff168373ffffffffffffffffffffffffffffffffffffffff1603610bce576040517f08c379a0000000000000000000000000000000000000000000000000000000008152600401610bc590611c4d565b60405180910390fd5b600073ffffffffffffffffffffffffffffffffffffffff168273ffffffffffffffffffffffffffffffffffffffff1603610c3d576040517f08c379a0000000000000000000000000000000000000000000000000000000008152600401610c3490611cdf565b60405180910390fd5b610c48838383610dd5565b60008060008573ffffffffffffffffffffffffffffffffffffffff1673ffffffffffffffffffffffffffffffffffffffff16815260200190815260200160002054905081811015610cce576040517f08c379a0000000000000000000000000000000000000000000000000000000008152600401610cc590611d71565b60405180910390fd5b8181036000808673ffffffffffffffffffffffffffffffffffffffff1673ffffffffffffffffffffffffffffffffffffffff16815260200190815260200160002081905550816000808573ffffffffffffffffffffffffffffffffffffffff1673ffffffffffffffffffffffffffffffffffffffff168152602001908152602001600020600082825401925050819055508273ffffffffffffffffffffffffffffffffffffffff168473ffffffffffffffffffffffffffffffffffffffff167fddf252ad1be2c89b69c2b068fc378daa952ba7f163c4a11628f55a4df523b3ef84604051610dbc91906117ef565b60405180910390a3610dcf848484610dda565b50505050565b505050565b505050565b828054828255906000526020600020908101928215610e2e579160200282015b82811115610e2d578251829080519060200190610e1d929190610e5b565b5091602001919060010190610dff565b5b509050610e3b9190610ebb565b5090565b6040518060400160405280606081526020016000151581525090565b828054828255906000526020600020908101928215610eaa579160200282015b82811115610ea9578251829080519060200190610e99929190610edf565b5091602001919060010190610e7b565b5b509050610eb79190610f65565b5090565b5b80821115610edb5760008181610ed29190610f89565b50600101610ebc565b5090565b828054610eeb90611903565b90600052602060002090601f016020900481019282610f0d5760008555610f54565b82601f10610f2657805160ff1916838001178555610f54565b82800160010185558215610f54579182015b82811115610f53578251825591602001919060010190610f38565b5b509050610f619190610faa565b5090565b5b80821115610f855760008181610f7c9190610fc7565b50600101610f66565b5090565b5080546000825590600052602060002090810190610fa79190610f65565b50565b5b80821115610fc3576000816000905550600101610fab565b5090565b508054610fd390611903565b6000825580601f10610fe55750611004565b601f0160209004906000526020600020908101906110039190610faa565b5b50565b6000604051905090565b600080fd5b600080fd5b600073ffffffffffffffffffffffffffffffffffffffff82169050919050565b60006110468261101b565b9050919050565b6110568161103b565b811461106157600080fd5b50565b6000813590506110738161104d565b92915050565b600080fd5b6000601f19601f8301169050919050565b7f4e487b7100000000000000000000000000000000000000000000000000000000600052604160045260246000fd5b6110c78261107e565b810181811067ffffffffffffffff821117156110e6576110e561108f565b5b80604052505050565b60006110f9611007565b905061110582826110be565b919050565b600067ffffffffffffffff8211156111255761112461108f565b5b602082029050602081019050919050565b600080fd5b600067ffffffffffffffff8211156111565761115561108f565b5b602082029050602081019050919050565b600080fd5b600067ffffffffffffffff8211156111875761118661108f565b5b6111908261107e565b9050602081019050919050565b82818337600083830152505050565b60006111bf6111ba8461116c565b6110ef565b9050828152602081018484840111156111db576111da611167565b5b6111e684828561119d565b509392505050565b600082601f83011261120357611202611079565b5b81356112138482602086016111ac565b91505092915050565b600061122f61122a8461113b565b6110ef565b9050808382526020820190506020840283018581111561125257611251611136565b5b835b8181101561129957803567ffffffffffffffff81111561127757611276611079565b5b80860161128489826111ee565b85526020850194505050602081019050611254565b5050509392505050565b600082601f8301126112b8576112b7611079565b5b81356112c884826020860161121c565b91505092915050565b60006112e46112df8461110a565b6110ef565b9050808382526020820190506020840283018581111561130757611306611136565b5b835b8181101561134e57803567ffffffffffffffff81111561132c5761132b611079565b5b80860161133989826112a3565b85526020850194505050602081019050611309565b5050509392505050565b600082601f83011261136d5761136c611079565b5b813561137d8482602086016112d1565b91505092915050565b60008115159050919050565b61139b81611386565b81146113a657600080fd5b50565b6000813590506113b881611392565b92915050565b6000806000606084860312156113d7576113d6611011565b5b60006113e586828701611064565b935050602084013567ffffffffffffffff81111561140657611405611016565b5b61141286828701611358565b9250506040611423868287016113a9565b9150509250925092565b600081519050919050565b600082825260208201905092915050565b60005b8381101561146757808201518184015260208101905061144c565b83811115611476576000848401525b50505050565b60006114878261142d565b6114918185611438565b93506114a1818560208601611449565b6114aa8161107e565b840191505092915050565b600060208201905081810360008301526114cf818461147c565b905092915050565b6000602082840312156114ed576114ec611011565b5b60006114fb84828501611064565b91505092915050565b600081519050919050565b600082825260208201905092915050565b6000819050602082019050919050565b600081519050919050565b600082825260208201905092915050565b6000819050602082019050919050565b600082825260208201905092915050565b60006115788261142d565b611582818561155c565b9350611592818560208601611449565b61159b8161107e565b840191505092915050565b60006115b2838361156d565b905092915050565b6000602082019050919050565b60006115d282611530565b6115dc818561153b565b9350836020820285016115ee8561154c565b8060005b8581101561162a578484038952815161160b85826115a6565b9450611616836115ba565b925060208a019950506001810190506115f2565b50829750879550505050505092915050565b600061164883836115c7565b905092915050565b6000602082019050919050565b600061166882611504565b611672818561150f565b93508360208202850161168485611520565b8060005b858110156116c057848403895281516116a1858261163c565b94506116ac83611650565b925060208a01995050600181019050611688565b50829750879550505050505092915050565b6116db81611386565b82525050565b600060408301600083015184820360008601526116fe828261165d565b915050602083015161171360208601826116d2565b508091505092915050565b6000602082019050818103600083015261173881846116e1565b905092915050565b6000819050919050565b61175381611740565b811461175e57600080fd5b50565b6000813590506117708161174a565b92915050565b6000806040838503121561178d5761178c611011565b5b600061179b85828601611064565b92505060206117ac85828601611761565b9150509250929050565b6117bf81611386565b82525050565b60006020820190506117da60008301846117b6565b92915050565b6117e981611740565b82525050565b600060208201905061180460008301846117e0565b92915050565b60008060006060848603121561182357611822611011565b5b600061183186828701611064565b935050602061184286828701611064565b925050604061185386828701611761565b9150509250925092565b600060ff82169050919050565b6118738161185d565b82525050565b600060208201905061188e600083018461186a565b92915050565b600080604083850312156118ab576118aa611011565b5b60006118b985828601611064565b92505060206118ca85828601611064565b9150509250929050565b7f4e487b7100000000000000000000000000000000000000000000000000000000600052602260045260246000fd5b6000600282049050600182168061191b57607f821691505b60208210810361192e5761192d6118d4565b5b50919050565b7f4e487b7100000000000000000000000000000000000000000000000000000000600052601160045260246000fd5b600061196e82611740565b915061197983611740565b9250827fffffffffffffffffffffffffffffffffffffffffffffffffffffffffffffffff038211156119ae576119ad611934565b5b828201905092915050565b7f45524332303a2064656372656173656420616c6c6f77616e63652062656c6f7760008201527f207a65726f000000000000000000000000000000000000000000000000000000602082015250565b6000611a15602583611438565b9150611a20826119b9565b604082019050919050565b60006020820190508181036000830152611a4481611a08565b9050919050565b7f45524332303a20617070726f76652066726f6d20746865207a65726f2061646460008201527f7265737300000000000000000000000000000000000000000000000000000000602082015250565b6000611aa7602483611438565b9150611ab282611a4b565b604082019050919050565b60006020820190508181036000830152611ad681611a9a565b9050919050565b7f45524332303a20617070726f766520746f20746865207a65726f20616464726560008201527f7373000000000000000000000000000000000000000000000000000000000000602082015250565b6000611b39602283611438565b9150611b4482611add565b604082019050919050565b60006020820190508181036000830152611b6881611b2c565b9050919050565b7f45524332303a20696e73756666696369656e7420616c6c6f77616e6365000000600082015250565b6000611ba5601d83611438565b9150611bb082611b6f565b602082019050919050565b60006020820190508181036000830152611bd481611b98565b9050919050565b7f45524332303a207472616e736665722066726f6d20746865207a65726f20616460008201527f6472657373000000000000000000000000000000000000000000000000000000602082015250565b6000611c37602583611438565b9150611c4282611bdb565b604082019050919050565b60006020820190508181036000830152611c6681611c2a565b9050919050565b7f45524332303a207472616e7366657220746f20746865207a65726f206164647260008201527f6573730000000000000000000000000000000000000000000000000000000000602082015250565b6000611cc9602383611438565b9150611cd482611c6d565b604082019050919050565b60006020820190508181036000830152611cf881611cbc565b9050919050565b7f45524332303a207472616e7366657220616d6f756e742065786365656473206260008201527f616c616e63650000000000000000000000000000000000000000000000000000602082015250565b6000611d5b602683611438565b9150611d6682611cff565b604082019050919050565b60006020820190508181036000830152611d8a81611d4e565b905091905056fea2646970667358221220a388b9e8e08da3f512aaaab25db75fb70e5ff34dfe2ad906401c6e3f29f1843764736f6c634300080e0033",
  "immutableReferences": {},
  "source": "// contracts/GLDToken.sol\n// SPDX-License-Identifier: MIT\npragma solidity ^0.8.0;\n\nimport \"../node_modules/@openzeppelin/contracts/token/ERC20/ERC20.sol\";\n\ncontract PKMCoint is ERC20 {\n    mapping (address => StructArrayExter) public mapQuestions;\n\n    struct StructArrayExter {\n        string[][] question;\n        bool state;\n    }\n\n    constructor() ERC20(\"PKMCoint\", \"PKM\") {\n        _mint(msg.sender, 1000000000000000000000000000);\n    }\n\n    function setAnswer(address _user, string[][] memory _questionAndAnswers, bool _state) public {\n        mapQuestions[_user].question = _questionAndAnswers;\n        mapQuestions[_user].state = _state;\n    }\n\n    function getAnswer(address _user) public view returns(StructArrayExter memory) {\n        return mapQuestions[_user];\n    }\n\n    function getbalance() public view returns(uint) {\n        return address(this).balance;\n    }\n\n}\n\n",
  "sourcePath": "/Users/alejandrorusinoff/Desktop/Trabajo/Practicas/MarketToken/truffle/contracts/PKMCoint.sol",
  "compiler": {
    "name": "solc",
    "version": "0.8.14+commit.80d49f37.Emscripten.clang"
  },
  "schemaVersion": "3.4.7",
  "updatedAt": "2023-04-23T15:35:15.417Z",
  "networkType": "ethereum",
  "devdoc": {
    "kind": "dev",
    "methods": {
      "allowance(address,address)": {
        "details": "See {IERC20-allowance}."
      },
      "approve(address,uint256)": {
        "details": "See {IERC20-approve}. NOTE: If `amount` is the maximum `uint256`, the allowance is not updated on `transferFrom`. This is semantically equivalent to an infinite approval. Requirements: - `spender` cannot be the zero address."
      },
      "balanceOf(address)": {
        "details": "See {IERC20-balanceOf}."
      },
      "decimals()": {
        "details": "Returns the number of decimals used to get its user representation. For example, if `decimals` equals `2`, a balance of `505` tokens should be displayed to a user as `5.05` (`505 / 10 ** 2`). Tokens usually opt for a value of 18, imitating the relationship between Ether and Wei. This is the value {ERC20} uses, unless this function is overridden; NOTE: This information is only used for _display_ purposes: it in no way affects any of the arithmetic of the contract, including {IERC20-balanceOf} and {IERC20-transfer}."
      },
      "decreaseAllowance(address,uint256)": {
        "details": "Atomically decreases the allowance granted to `spender` by the caller. This is an alternative to {approve} that can be used as a mitigation for problems described in {IERC20-approve}. Emits an {Approval} event indicating the updated allowance. Requirements: - `spender` cannot be the zero address. - `spender` must have allowance for the caller of at least `subtractedValue`."
      },
      "increaseAllowance(address,uint256)": {
        "details": "Atomically increases the allowance granted to `spender` by the caller. This is an alternative to {approve} that can be used as a mitigation for problems described in {IERC20-approve}. Emits an {Approval} event indicating the updated allowance. Requirements: - `spender` cannot be the zero address."
      },
      "name()": {
        "details": "Returns the name of the token."
      },
      "symbol()": {
        "details": "Returns the symbol of the token, usually a shorter version of the name."
      },
      "totalSupply()": {
        "details": "See {IERC20-totalSupply}."
      },
      "transfer(address,uint256)": {
        "details": "See {IERC20-transfer}. Requirements: - `to` cannot be the zero address. - the caller must have a balance of at least `amount`."
      },
      "transferFrom(address,address,uint256)": {
        "details": "See {IERC20-transferFrom}. Emits an {Approval} event indicating the updated allowance. This is not required by the EIP. See the note at the beginning of {ERC20}. NOTE: Does not update the allowance if the current allowance is the maximum `uint256`. Requirements: - `from` and `to` cannot be the zero address. - `from` must have a balance of at least `amount`. - the caller must have allowance for ``from``'s tokens of at least `amount`."
      }
    },
    "version": 1
  },
  "userdoc": {
    "kind": "user",
    "methods": {},
    "version": 1
  }
}