{
  "contractName": "PokemonHelper",
  "abi": [
    {
      "anonymous": false,
      "inputs": [
        {
          "indexed": false,
          "internalType": "string",
          "name": "_msg",
          "type": "string"
        },
        {
          "indexed": false,
          "internalType": "uint256",
          "name": "_id",
          "type": "uint256"
        }
      ],
      "name": "Msg",
      "type": "event"
    },
    {
      "anonymous": false,
      "inputs": [
        {
          "indexed": false,
          "internalType": "uint256",
          "name": "_id",
          "type": "uint256"
        },
        {
          "indexed": false,
          "internalType": "uint256",
          "name": "_pokemonId",
          "type": "uint256"
        },
        {
          "indexed": false,
          "internalType": "string",
          "name": "_name",
          "type": "string"
        },
        {
          "indexed": false,
          "internalType": "string[]",
          "name": "_tipe",
          "type": "string[]"
        },
        {
          "indexed": false,
          "internalType": "string[]",
          "name": "_abilities",
          "type": "string[]"
        },
        {
          "indexed": false,
          "internalType": "uint256",
          "name": "_randDna",
          "type": "uint256"
        },
        {
          "indexed": false,
          "internalType": "bool",
          "name": "_created",
          "type": "bool"
        },
        {
          "indexed": false,
          "internalType": "string",
          "name": "_image",
          "type": "string"
        }
      ],
      "name": "NewPokemon",
      "type": "event"
    },
    {
      "inputs": [
        {
          "internalType": "uint256",
          "name": "_pokemonId",
          "type": "uint256"
        },
        {
          "internalType": "string",
          "name": "_name",
          "type": "string"
        },
        {
          "internalType": "string[]",
          "name": "_tipe",
          "type": "string[]"
        },
        {
          "internalType": "string[]",
          "name": "_abilities",
          "type": "string[]"
        },
        {
          "internalType": "string",
          "name": "_image",
          "type": "string"
        },
        {
          "internalType": "bool",
          "name": "_created",
          "type": "bool"
        }
      ],
      "name": "createRandomPokemon",
      "outputs": [],
      "stateMutability": "nonpayable",
      "type": "function"
    },
    {
      "inputs": [],
      "name": "owner",
      "outputs": [
        {
          "internalType": "address payable",
          "name": "",
          "type": "address"
        }
      ],
      "stateMutability": "view",
      "type": "function",
      "constant": true
    },
    {
      "inputs": [
        {
          "internalType": "address",
          "name": "",
          "type": "address"
        }
      ],
      "name": "ownerPokemonCount",
      "outputs": [
        {
          "internalType": "uint256",
          "name": "",
          "type": "uint256"
        }
      ],
      "stateMutability": "view",
      "type": "function",
      "constant": true
    },
    {
      "inputs": [
        {
          "internalType": "uint256",
          "name": "",
          "type": "uint256"
        }
      ],
      "name": "pokemonToOwner",
      "outputs": [
        {
          "internalType": "address",
          "name": "",
          "type": "address"
        }
      ],
      "stateMutability": "view",
      "type": "function",
      "constant": true
    },
    {
      "inputs": [
        {
          "internalType": "uint256",
          "name": "",
          "type": "uint256"
        }
      ],
      "name": "pokemons",
      "outputs": [
        {
          "internalType": "uint256",
          "name": "pokemonId",
          "type": "uint256"
        },
        {
          "internalType": "uint256",
          "name": "indexArray",
          "type": "uint256"
        },
        {
          "internalType": "string",
          "name": "name",
          "type": "string"
        },
        {
          "internalType": "string",
          "name": "image",
          "type": "string"
        },
        {
          "internalType": "uint256",
          "name": "randDna",
          "type": "uint256"
        },
        {
          "internalType": "bool",
          "name": "created",
          "type": "bool"
        }
      ],
      "stateMutability": "view",
      "type": "function",
      "constant": true
    },
    {
      "inputs": [
        {
          "internalType": "uint256",
          "name": "",
          "type": "uint256"
        }
      ],
      "name": "zombieApprovals",
      "outputs": [
        {
          "internalType": "address",
          "name": "",
          "type": "address"
        }
      ],
      "stateMutability": "view",
      "type": "function",
      "constant": true
    },
    {
      "inputs": [
        {
          "internalType": "uint256",
          "name": "_fee",
          "type": "uint256"
        }
      ],
      "name": "setFee",
      "outputs": [],
      "stateMutability": "nonpayable",
      "type": "function"
    },
    {
      "inputs": [],
      "name": "withdraw",
      "outputs": [],
      "stateMutability": "nonpayable",
      "type": "function"
    },
    {
      "inputs": [
        {
          "internalType": "uint256",
          "name": "_id",
          "type": "uint256"
        }
      ],
      "name": "getPokemonById",
      "outputs": [
        {
          "components": [
            {
              "internalType": "uint256",
              "name": "pokemonId",
              "type": "uint256"
            },
            {
              "internalType": "uint256",
              "name": "indexArray",
              "type": "uint256"
            },
            {
              "internalType": "string",
              "name": "name",
              "type": "string"
            },
            {
              "internalType": "string[]",
              "name": "tipes",
              "type": "string[]"
            },
            {
              "internalType": "string[]",
              "name": "abilities",
              "type": "string[]"
            },
            {
              "internalType": "string",
              "name": "image",
              "type": "string"
            },
            {
              "internalType": "uint256",
              "name": "randDna",
              "type": "uint256"
            },
            {
              "internalType": "bool",
              "name": "created",
              "type": "bool"
            }
          ],
          "internalType": "struct PokemonFactory.Pokemon",
          "name": "",
          "type": "tuple"
        }
      ],
      "stateMutability": "view",
      "type": "function",
      "constant": true
    },
    {
      "inputs": [],
      "name": "getAllPokemons",
      "outputs": [
        {
          "components": [
            {
              "internalType": "uint256",
              "name": "pokemonId",
              "type": "uint256"
            },
            {
              "internalType": "uint256",
              "name": "indexArray",
              "type": "uint256"
            },
            {
              "internalType": "string",
              "name": "name",
              "type": "string"
            },
            {
              "internalType": "string[]",
              "name": "tipes",
              "type": "string[]"
            },
            {
              "internalType": "string[]",
              "name": "abilities",
              "type": "string[]"
            },
            {
              "internalType": "string",
              "name": "image",
              "type": "string"
            },
            {
              "internalType": "uint256",
              "name": "randDna",
              "type": "uint256"
            },
            {
              "internalType": "bool",
              "name": "created",
              "type": "bool"
            }
          ],
          "internalType": "struct PokemonFactory.Pokemon[]",
          "name": "",
          "type": "tuple[]"
        }
      ],
      "stateMutability": "view",
      "type": "function",
      "constant": true
    },
    {
      "inputs": [
        {
          "internalType": "address",
          "name": "_owner",
          "type": "address"
        }
      ],
      "name": "getPokemonsByOwner",
      "outputs": [
        {
          "internalType": "uint256[]",
          "name": "",
          "type": "uint256[]"
        }
      ],
      "stateMutability": "view",
      "type": "function",
      "constant": true
    }
  ],
  "bytecode": "0x6080604052602a600055600054600a6200001a91906200020b565b600155670de0b6b3a76400006007553480156200003657600080fd5b5033600260006101000a81548173ffffffffffffffffffffffffffffffffffffffff021916908373ffffffffffffffffffffffffffffffffffffffff1602179055506200025c565b7f4e487b7100000000000000000000000000000000000000000000000000000000600052601160045260246000fd5b60008160011c9050919050565b6000808291508390505b60018511156200010c57808604811115620000e457620000e36200007e565b5b6001851615620000f45780820291505b80810290506200010485620000ad565b9450620000c4565b94509492505050565b600082620001275760019050620001fa565b81620001375760009050620001fa565b81600181146200015057600281146200015b5762000191565b6001915050620001fa565b60ff84111562000170576200016f6200007e565b5b8360020a9150848211156200018a57620001896200007e565b5b50620001fa565b5060208310610133831016604e8410600b8410161715620001cb5782820a905083811115620001c557620001c46200007e565b5b620001fa565b620001da8484846001620000ba565b92509050818404811115620001f457620001f36200007e565b5b81810290505b9392505050565b6000819050919050565b6000620002188262000201565b9150620002258362000201565b9250620002547fffffffffffffffffffffffffffffffffffffffffffffffffffffffffffffffff848462000115565b905092915050565b6123b3806200026c6000396000f3fe608060405234801561001057600080fd5b50600436106100a95760003560e01c806369fe0e2d1161007157806369fe0e2d14610166578063731e4f5a14610182578063858310791461019e5780638da5cb5b146101d3578063ad931b7e146101f1578063bd1a8d6514610221576100a9565b806325963cca146100ae5780632f7467b3146100de57806335beeb271461010e5780633ccfd60b1461013e5780635e91679014610148575b600080fd5b6100c860048036038101906100c391906114d2565b610251565b6040516100d59190611518565b60405180910390f35b6100f860048036038101906100f3919061155f565b610269565b604051610105919061159b565b60405180910390f35b610128600480360381019061012391906114d2565b61029c565b6040516101359190611674565b60405180910390f35b6101466103ee565b005b61015061054f565b60405161015d9190611993565b60405180910390f35b610180600480360381019061017b919061155f565b6108be565b005b61019c60048036038101906101979190611bfc565b610958565b005b6101b860048036038101906101b3919061155f565b6109ff565b6040516101ca96959493929190611d52565b60405180910390f35b6101db610b68565b6040516101e89190611de2565b60405180910390f35b61020b6004803603810190610206919061155f565b610b8e565b604051610218919061159b565b60405180910390f35b61023b6004803603810190610236919061155f565b610bc1565b6040516102489190611ec2565b60405180910390f35b60046020528060005260406000206000915090505481565b60036020528060005260406000206000915054906101000a900473ffffffffffffffffffffffffffffffffffffffff1681565b60606000600460008473ffffffffffffffffffffffffffffffffffffffff1673ffffffffffffffffffffffffffffffffffffffff1681526020019081526020016000205467ffffffffffffffff8111156102f9576102f86119bf565b5b6040519080825280602002602001820160405280156103275781602001602082028036833780820191505090505b5090506000805b6006805490508110156103e3578473ffffffffffffffffffffffffffffffffffffffff166003600083815260200190815260200160002060009054906101000a900473ffffffffffffffffffffffffffffffffffffffff1673ffffffffffffffffffffffffffffffffffffffff16036103d057808383815181106103b5576103b4611ee4565b5b60200260200101818152505081806103cc90611f42565b9250505b80806103db90611f42565b91505061032e565b508192505050919050565b600260009054906101000a900473ffffffffffffffffffffffffffffffffffffffff1673ffffffffffffffffffffffffffffffffffffffff163373ffffffffffffffffffffffffffffffffffffffff161461047e576040517f08c379a000000000000000000000000000000000000000000000000000000000815260040161047590611ffc565b60405180910390fd5b6000600260009054906101000a900473ffffffffffffffffffffffffffffffffffffffff1673ffffffffffffffffffffffffffffffffffffffff16476040516104c69061204d565b60006040518083038185875af1925050503d8060008114610503576040519150601f19603f3d011682016040523d82523d6000602084013e610508565b606091505b505090508061054c576040517f08c379a0000000000000000000000000000000000000000000000000000000008152600401610543906120ae565b60405180910390fd5b50565b60606006805480602002602001604051908101604052809291908181526020016000905b828210156108b557838290600052602060002090600802016040518061010001604052908160008201548152602001600182015481526020016002820180546105bb906120fd565b80601f01602080910402602001604051908101604052809291908181526020018280546105e7906120fd565b80156106345780601f1061060957610100808354040283529160200191610634565b820191906000526020600020905b81548152906001019060200180831161061757829003601f168201915b5050505050815260200160038201805480602002602001604051908101604052809291908181526020016000905b8282101561070e578382906000526020600020018054610681906120fd565b80601f01602080910402602001604051908101604052809291908181526020018280546106ad906120fd565b80156106fa5780601f106106cf576101008083540402835291602001916106fa565b820191906000526020600020905b8154815290600101906020018083116106dd57829003601f168201915b505050505081526020019060010190610662565b50505050815260200160048201805480602002602001604051908101604052809291908181526020016000905b828210156107e757838290600052602060002001805461075a906120fd565b80601f0160208091040260200160405190810160405280929190818152602001828054610786906120fd565b80156107d35780601f106107a8576101008083540402835291602001916107d3565b820191906000526020600020905b8154815290600101906020018083116107b657829003601f168201915b50505050508152602001906001019061073b565b5050505081526020016005820180546107ff906120fd565b80601f016020809104026020016040519081016040528092919081815260200182805461082b906120fd565b80156108785780601f1061084d57610100808354040283529160200191610878565b820191906000526020600020905b81548152906001019060200180831161085b57829003601f168201915b50505050508152602001600682015481526020016007820160009054906101000a900460ff16151515158152505081526020019060010190610573565b50505050905090565b600260009054906101000a900473ffffffffffffffffffffffffffffffffffffffff1673ffffffffffffffffffffffffffffffffffffffff163373ffffffffffffffffffffffffffffffffffffffff161461094e576040517f08c379a000000000000000000000000000000000000000000000000000000000815260040161094590611ffc565b60405180910390fd5b8060078190555050565b600260009054906101000a900473ffffffffffffffffffffffffffffffffffffffff1673ffffffffffffffffffffffffffffffffffffffff163373ffffffffffffffffffffffffffffffffffffffff16146109e8576040517f08c379a00000000000000000000000000000000000000000000000000000000081526004016109df90611ffc565b60405180910390fd5b6109f6868686868686610f0d565b50505050505050565b60068181548110610a0f57600080fd5b9060005260206000209060080201600091509050806000015490806001015490806002018054610a3e906120fd565b80601f0160208091040260200160405190810160405280929190818152602001828054610a6a906120fd565b8015610ab75780601f10610a8c57610100808354040283529160200191610ab7565b820191906000526020600020905b815481529060010190602001808311610a9a57829003601f168201915b505050505090806005018054610acc906120fd565b80601f0160208091040260200160405190810160405280929190818152602001828054610af8906120fd565b8015610b455780601f10610b1a57610100808354040283529160200191610b45565b820191906000526020600020905b815481529060010190602001808311610b2857829003601f168201915b5050505050908060060154908060070160009054906101000a900460ff16905086565b600260009054906101000a900473ffffffffffffffffffffffffffffffffffffffff1681565b60056020528060005260406000206000915054906101000a900473ffffffffffffffffffffffffffffffffffffffff1681565b610bc96112b2565b60068281548110610bdd57610bdc611ee4565b5b9060005260206000209060080201604051806101000160405290816000820154815260200160018201548152602001600282018054610c1b906120fd565b80601f0160208091040260200160405190810160405280929190818152602001828054610c47906120fd565b8015610c945780601f10610c6957610100808354040283529160200191610c94565b820191906000526020600020905b815481529060010190602001808311610c7757829003601f168201915b5050505050815260200160038201805480602002602001604051908101604052809291908181526020016000905b82821015610d6e578382906000526020600020018054610ce1906120fd565b80601f0160208091040260200160405190810160405280929190818152602001828054610d0d906120fd565b8015610d5a5780601f10610d2f57610100808354040283529160200191610d5a565b820191906000526020600020905b815481529060010190602001808311610d3d57829003601f168201915b505050505081526020019060010190610cc2565b50505050815260200160048201805480602002602001604051908101604052809291908181526020016000905b82821015610e47578382906000526020600020018054610dba906120fd565b80601f0160208091040260200160405190810160405280929190818152602001828054610de6906120fd565b8015610e335780601f10610e0857610100808354040283529160200191610e33565b820191906000526020600020905b815481529060010190602001808311610e1657829003601f168201915b505050505081526020019060010190610d9b565b505050508152602001600582018054610e5f906120fd565b80601f0160208091040260200160405190810160405280929190818152602001828054610e8b906120fd565b8015610ed85780601f10610ead57610100808354040283529160200191610ed8565b820191906000526020600020905b815481529060010190602001808311610ebb57829003601f168201915b50505050508152602001600682015481526020016007820160009054906101000a900460ff1615151515815250509050919050565b606060005b600680549050811015610f9c578760068281548110610f3457610f33611ee4565b5b90600052602060002090600802016000015403610f89576040518060400160405280601481526020017f656c20706f6b656d6f6e20796120657869737465000000000000000000000000815250915050611247565b8080610f9490611f42565b915050610f12565b50600060068054905090506000610fb4888884611251565b905060066040518061010001604052808b81526020018481526020018a815260200189815260200188815260200187815260200183815260200186151581525090806001815401808255809150506001900390600052602060002090600802016000909190919091506000820151816000015560208201518160010155604082015181600201908051906020019061104d9291906112f9565b50606082015181600301908051906020019061106a92919061137f565b50608082015181600401908051906020019061108792919061137f565b5060a08201518160050190805190602001906110a49291906112f9565b5060c0820151816006015560e08201518160070160006101000a81548160ff0219169083151502179055505050600060016006805490506110e5919061212e565b9050336003600083815260200190815260200160002060006101000a81548173ffffffffffffffffffffffffffffffffffffffff021916908373ffffffffffffffffffffffffffffffffffffffff160217905550611183600460003373ffffffffffffffffffffffffffffffffffffffff1673ffffffffffffffffffffffffffffffffffffffff16815260200190815260200160002054600161129c565b600460003373ffffffffffffffffffffffffffffffffffffffff1673ffffffffffffffffffffffffffffffffffffffff168152602001908152602001600020819055507f2a3b3d2b43a550772655479e81354c5370c0f4f70d8cbfc7f520c957d7fdea17818b8b8b8b878b8d6040516112039897969594939291906121e8565b60405180910390a16040518060400160405280601b81526020017f706f6b656d6f6e2063726561646f20657869746f73616d656e7465000000000081525093505050505b9695505050505050565b60008084848460405160200161126993929190612282565b6040516020818303038152906040528051906020012060001c90506001548161129291906122f6565b9150509392505050565b600081836112aa9190612327565b905092915050565b604051806101000160405280600081526020016000815260200160608152602001606081526020016060815260200160608152602001600081526020016000151581525090565b828054611305906120fd565b90600052602060002090601f016020900481019282611327576000855561136e565b82601f1061134057805160ff191683800117855561136e565b8280016001018555821561136e579182015b8281111561136d578251825591602001919060010190611352565b5b50905061137b91906113df565b5090565b8280548282559060005260206000209081019282156113ce579160200282015b828111156113cd5782518290805190602001906113bd9291906112f9565b509160200191906001019061139f565b5b5090506113db91906113fc565b5090565b5b808211156113f85760008160009055506001016113e0565b5090565b5b8082111561141c57600081816114139190611420565b506001016113fd565b5090565b50805461142c906120fd565b6000825580601f1061143e575061145d565b601f01602090049060005260206000209081019061145c91906113df565b5b50565b6000604051905090565b600080fd5b600080fd5b600073ffffffffffffffffffffffffffffffffffffffff82169050919050565b600061149f82611474565b9050919050565b6114af81611494565b81146114ba57600080fd5b50565b6000813590506114cc816114a6565b92915050565b6000602082840312156114e8576114e761146a565b5b60006114f6848285016114bd565b91505092915050565b6000819050919050565b611512816114ff565b82525050565b600060208201905061152d6000830184611509565b92915050565b61153c816114ff565b811461154757600080fd5b50565b60008135905061155981611533565b92915050565b6000602082840312156115755761157461146a565b5b60006115838482850161154a565b91505092915050565b61159581611494565b82525050565b60006020820190506115b0600083018461158c565b92915050565b600081519050919050565b600082825260208201905092915050565b6000819050602082019050919050565b6115eb816114ff565b82525050565b60006115fd83836115e2565b60208301905092915050565b6000602082019050919050565b6000611621826115b6565b61162b81856115c1565b9350611636836115d2565b8060005b8381101561166757815161164e88826115f1565b975061165983611609565b92505060018101905061163a565b5085935050505092915050565b6000602082019050818103600083015261168e8184611616565b905092915050565b600081519050919050565b600082825260208201905092915050565b6000819050602082019050919050565b600081519050919050565b600082825260208201905092915050565b60005b838110156116fc5780820151818401526020810190506116e1565b8381111561170b576000848401525b50505050565b6000601f19601f8301169050919050565b600061172d826116c2565b61173781856116cd565b93506117478185602086016116de565b61175081611711565b840191505092915050565b600081519050919050565b600082825260208201905092915050565b6000819050602082019050919050565b60006117938383611722565b905092915050565b6000602082019050919050565b60006117b38261175b565b6117bd8185611766565b9350836020820285016117cf85611777565b8060005b8581101561180b57848403895281516117ec8582611787565b94506117f78361179b565b925060208a019950506001810190506117d3565b50829750879550505050505092915050565b60008115159050919050565b6118328161181d565b82525050565b60006101008301600083015161185160008601826115e2565b50602083015161186460208601826115e2565b506040830151848203604086015261187c8282611722565b9150506060830151848203606086015261189682826117a8565b915050608083015184820360808601526118b082826117a8565b91505060a083015184820360a08601526118ca8282611722565b91505060c08301516118df60c08601826115e2565b5060e08301516118f260e0860182611829565b508091505092915050565b60006119098383611838565b905092915050565b6000602082019050919050565b600061192982611696565b61193381856116a1565b935083602082028501611945856116b2565b8060005b85811015611981578484038952815161196285826118fd565b945061196d83611911565b925060208a01995050600181019050611949565b50829750879550505050505092915050565b600060208201905081810360008301526119ad818461191e565b905092915050565b600080fd5b600080fd5b7f4e487b7100000000000000000000000000000000000000000000000000000000600052604160045260246000fd5b6119f782611711565b810181811067ffffffffffffffff82111715611a1657611a156119bf565b5b80604052505050565b6000611a29611460565b9050611a3582826119ee565b919050565b600067ffffffffffffffff821115611a5557611a546119bf565b5b611a5e82611711565b9050602081019050919050565b82818337600083830152505050565b6000611a8d611a8884611a3a565b611a1f565b905082815260208101848484011115611aa957611aa86119ba565b5b611ab4848285611a6b565b509392505050565b600082601f830112611ad157611ad06119b5565b5b8135611ae1848260208601611a7a565b91505092915050565b600067ffffffffffffffff821115611b0557611b046119bf565b5b602082029050602081019050919050565b600080fd5b6000611b2e611b2984611aea565b611a1f565b90508083825260208201905060208402830185811115611b5157611b50611b16565b5b835b81811015611b9857803567ffffffffffffffff811115611b7657611b756119b5565b5b808601611b838982611abc565b85526020850194505050602081019050611b53565b5050509392505050565b600082601f830112611bb757611bb66119b5565b5b8135611bc7848260208601611b1b565b91505092915050565b611bd98161181d565b8114611be457600080fd5b50565b600081359050611bf681611bd0565b92915050565b60008060008060008060c08789031215611c1957611c1861146a565b5b6000611c2789828a0161154a565b965050602087013567ffffffffffffffff811115611c4857611c4761146f565b5b611c5489828a01611abc565b955050604087013567ffffffffffffffff811115611c7557611c7461146f565b5b611c8189828a01611ba2565b945050606087013567ffffffffffffffff811115611ca257611ca161146f565b5b611cae89828a01611ba2565b935050608087013567ffffffffffffffff811115611ccf57611cce61146f565b5b611cdb89828a01611abc565b92505060a0611cec89828a01611be7565b9150509295509295509295565b600082825260208201905092915050565b6000611d15826116c2565b611d1f8185611cf9565b9350611d2f8185602086016116de565b611d3881611711565b840191505092915050565b611d4c8161181d565b82525050565b600060c082019050611d676000830189611509565b611d746020830188611509565b8181036040830152611d868187611d0a565b90508181036060830152611d9a8186611d0a565b9050611da96080830185611509565b611db660a0830184611d43565b979650505050505050565b6000611dcc82611474565b9050919050565b611ddc81611dc1565b82525050565b6000602082019050611df76000830184611dd3565b92915050565b600061010083016000830151611e1660008601826115e2565b506020830151611e2960208601826115e2565b5060408301518482036040860152611e418282611722565b91505060608301518482036060860152611e5b82826117a8565b91505060808301518482036080860152611e7582826117a8565b91505060a083015184820360a0860152611e8f8282611722565b91505060c0830151611ea460c08601826115e2565b5060e0830151611eb760e0860182611829565b508091505092915050565b60006020820190508181036000830152611edc8184611dfd565b905092915050565b7f4e487b7100000000000000000000000000000000000000000000000000000000600052603260045260246000fd5b7f4e487b7100000000000000000000000000000000000000000000000000000000600052601160045260246000fd5b6000611f4d826114ff565b91507fffffffffffffffffffffffffffffffffffffffffffffffffffffffffffffffff8203611f7f57611f7e611f13565b5b600182019050919050565b7f546869732066756e6374696f6e206973207265737472696374656420746f207460008201527f686520636f6e74726163742773206f776e657200000000000000000000000000602082015250565b6000611fe6603383611cf9565b9150611ff182611f8a565b604082019050919050565b6000602082019050818103600083015261201581611fd9565b9050919050565b600081905092915050565b50565b600061203760008361201c565b915061204282612027565b600082019050919050565b60006120588261202a565b9150819050919050565b7f4661696c656420746f2073656e64204574686572000000000000000000000000600082015250565b6000612098601483611cf9565b91506120a382612062565b602082019050919050565b600060208201905081810360008301526120c78161208b565b9050919050565b7f4e487b7100000000000000000000000000000000000000000000000000000000600052602260045260246000fd5b6000600282049050600182168061211557607f821691505b602082108103612128576121276120ce565b5b50919050565b6000612139826114ff565b9150612144836114ff565b92508282101561215757612156611f13565b5b828203905092915050565b600082825260208201905092915050565b600061217e8261175b565b6121888185612162565b93508360208202850161219a85611777565b8060005b858110156121d657848403895281516121b78582611787565b94506121c28361179b565b925060208a0199505060018101905061219e565b50829750879550505050505092915050565b6000610100820190506121fe600083018b611509565b61220b602083018a611509565b818103604083015261221d8189611d0a565b905081810360608301526122318188612173565b905081810360808301526122458187612173565b905061225460a0830186611509565b61226160c0830185611d43565b81810360e08301526122738184611d0a565b90509998505050505050505050565b6000606082019050818103600083015261229c8186611d0a565b905081810360208301526122b08185612173565b90506122bf6040830184611509565b949350505050565b7f4e487b7100000000000000000000000000000000000000000000000000000000600052601260045260246000fd5b6000612301826114ff565b915061230c836114ff565b92508261231c5761231b6122c7565b5b828206905092915050565b6000612332826114ff565b915061233d836114ff565b9250827fffffffffffffffffffffffffffffffffffffffffffffffffffffffffffffffff0382111561237257612371611f13565b5b82820190509291505056fea2646970667358221220e68c02c81b0f7f5c921a23203284f866e16fd14e21daa73a94c4e9948e0fa8ae64736f6c634300080e0033",
  "immutableReferences": {},
  "source": "// SPDX-License-Identifier: MIT\npragma solidity >=0.4.22 <0.9.0;\nimport \"../node_modules/@openzeppelin/contracts/utils/math/SafeMath.sol\";\nimport \"./PokemonFactory.sol\";\n\ncontract PokemonHelper is PokemonFactory {\n    uint fee = 1 ether;\n    \n    modifier verifyPayment() {\n        require(msg.value  <= fee, \"insufficient payment\");\n        _;\n    }\n    \n    modifier onlyOwnerOf(uint _id) {\n        require(pokemonToOwner[_id] == msg.sender, \"he is not the owner of the pokemon\");\n        _;\n    }\n\n    function setFee(uint _fee) external onlyOwner {\n        fee = _fee;\n    }\n\n    //retiramos el dinero del contrato\n    function withdraw() external onlyOwner {\n        (bool sent, ) = owner.call{value: address(this).balance}(\"\");\n        require(sent, \"Failed to send Ether\");\n    }\n\n    function getPokemonById(uint _id) public view returns(Pokemon memory) {\n        return pokemons[_id];\n    }\n\n    function getAllPokemons() public view returns(Pokemon[] memory) {\n        return pokemons;\n    }\n\n    function getPokemonsByOwner(address _owner) public view returns(uint[] memory) {\n        //creamos una logica para que me devuelva un array de la cantidad de pokemons que tiene el dueo\n        uint[] memory result = new uint[](ownerPokemonCount[_owner]);\n        uint counter = 0;\n        for (uint256 i = 0; i < pokemons.length; i++) {\n            if (pokemonToOwner[i] == _owner) {\n                result[counter] = i;\n                counter++;\n            } \n        }\n        return result;\n    }\n}\n",
  "sourcePath": "/Users/alejandrorusinoff/Desktop/Trabajo/Practicas/MarketToken/truffle/contracts/PokemonHelper.sol",
  "compiler": {
    "name": "solc",
    "version": "0.8.14+commit.80d49f37.Emscripten.clang"
  },
  "schemaVersion": "3.4.7",
  "updatedAt": "2023-04-23T15:35:15.403Z",
  "networkType": "ethereum",
  "devdoc": {
    "kind": "dev",
    "methods": {},
    "version": 1
  },
  "userdoc": {
    "kind": "user",
    "methods": {},
    "version": 1
  }
}