{
  "contractName": "PokemonOwnership",
  "abi": [
    {
      "anonymous": false,
      "inputs": [
        {
          "indexed": true,
          "internalType": "address",
          "name": "owner",
          "type": "address"
        },
        {
          "indexed": true,
          "internalType": "address",
          "name": "spender",
          "type": "address"
        },
        {
          "indexed": false,
          "internalType": "uint256",
          "name": "value",
          "type": "uint256"
        }
      ],
      "name": "Approval",
      "type": "event"
    },
    {
      "anonymous": false,
      "inputs": [
        {
          "indexed": false,
          "internalType": "string",
          "name": "_msg",
          "type": "string"
        },
        {
          "indexed": false,
          "internalType": "uint256",
          "name": "_id",
          "type": "uint256"
        }
      ],
      "name": "Msg",
      "type": "event"
    },
    {
      "anonymous": false,
      "inputs": [
        {
          "indexed": false,
          "internalType": "uint256",
          "name": "_id",
          "type": "uint256"
        },
        {
          "indexed": false,
          "internalType": "uint256",
          "name": "_pokemonId",
          "type": "uint256"
        },
        {
          "indexed": false,
          "internalType": "string",
          "name": "_name",
          "type": "string"
        },
        {
          "indexed": false,
          "internalType": "string[]",
          "name": "_tipe",
          "type": "string[]"
        },
        {
          "indexed": false,
          "internalType": "string[]",
          "name": "_abilities",
          "type": "string[]"
        },
        {
          "indexed": false,
          "internalType": "uint256",
          "name": "_randDna",
          "type": "uint256"
        },
        {
          "indexed": false,
          "internalType": "bool",
          "name": "_created",
          "type": "bool"
        },
        {
          "indexed": false,
          "internalType": "string",
          "name": "_image",
          "type": "string"
        }
      ],
      "name": "NewPokemon",
      "type": "event"
    },
    {
      "anonymous": false,
      "inputs": [
        {
          "indexed": true,
          "internalType": "address",
          "name": "from",
          "type": "address"
        },
        {
          "indexed": true,
          "internalType": "address",
          "name": "to",
          "type": "address"
        },
        {
          "indexed": false,
          "internalType": "uint256",
          "name": "value",
          "type": "uint256"
        }
      ],
      "name": "Transfer",
      "type": "event"
    },
    {
      "inputs": [
        {
          "internalType": "address",
          "name": "owner",
          "type": "address"
        },
        {
          "internalType": "address",
          "name": "spender",
          "type": "address"
        }
      ],
      "name": "allowance",
      "outputs": [
        {
          "internalType": "uint256",
          "name": "",
          "type": "uint256"
        }
      ],
      "stateMutability": "view",
      "type": "function",
      "constant": true
    },
    {
      "inputs": [
        {
          "internalType": "address",
          "name": "spender",
          "type": "address"
        },
        {
          "internalType": "uint256",
          "name": "amount",
          "type": "uint256"
        }
      ],
      "name": "approve",
      "outputs": [
        {
          "internalType": "bool",
          "name": "",
          "type": "bool"
        }
      ],
      "stateMutability": "nonpayable",
      "type": "function"
    },
    {
      "inputs": [
        {
          "internalType": "address",
          "name": "account",
          "type": "address"
        }
      ],
      "name": "balanceOf",
      "outputs": [
        {
          "internalType": "uint256",
          "name": "",
          "type": "uint256"
        }
      ],
      "stateMutability": "view",
      "type": "function",
      "constant": true
    },
    {
      "inputs": [
        {
          "internalType": "uint256",
          "name": "_pokemonId",
          "type": "uint256"
        },
        {
          "internalType": "string",
          "name": "_name",
          "type": "string"
        },
        {
          "internalType": "string[]",
          "name": "_tipe",
          "type": "string[]"
        },
        {
          "internalType": "string[]",
          "name": "_abilities",
          "type": "string[]"
        },
        {
          "internalType": "string",
          "name": "_image",
          "type": "string"
        },
        {
          "internalType": "bool",
          "name": "_created",
          "type": "bool"
        }
      ],
      "name": "createRandomPokemon",
      "outputs": [],
      "stateMutability": "nonpayable",
      "type": "function"
    },
    {
      "inputs": [],
      "name": "decimals",
      "outputs": [
        {
          "internalType": "uint8",
          "name": "",
          "type": "uint8"
        }
      ],
      "stateMutability": "view",
      "type": "function",
      "constant": true
    },
    {
      "inputs": [
        {
          "internalType": "address",
          "name": "spender",
          "type": "address"
        },
        {
          "internalType": "uint256",
          "name": "subtractedValue",
          "type": "uint256"
        }
      ],
      "name": "decreaseAllowance",
      "outputs": [
        {
          "internalType": "bool",
          "name": "",
          "type": "bool"
        }
      ],
      "stateMutability": "nonpayable",
      "type": "function"
    },
    {
      "inputs": [],
      "name": "getAllPokemons",
      "outputs": [
        {
          "components": [
            {
              "internalType": "uint256",
              "name": "pokemonId",
              "type": "uint256"
            },
            {
              "internalType": "uint256",
              "name": "indexArray",
              "type": "uint256"
            },
            {
              "internalType": "string",
              "name": "name",
              "type": "string"
            },
            {
              "internalType": "string[]",
              "name": "tipes",
              "type": "string[]"
            },
            {
              "internalType": "string[]",
              "name": "abilities",
              "type": "string[]"
            },
            {
              "internalType": "string",
              "name": "image",
              "type": "string"
            },
            {
              "internalType": "uint256",
              "name": "randDna",
              "type": "uint256"
            },
            {
              "internalType": "bool",
              "name": "created",
              "type": "bool"
            }
          ],
          "internalType": "struct PokemonFactory.Pokemon[]",
          "name": "",
          "type": "tuple[]"
        }
      ],
      "stateMutability": "view",
      "type": "function",
      "constant": true
    },
    {
      "inputs": [
        {
          "internalType": "address",
          "name": "_user",
          "type": "address"
        }
      ],
      "name": "getAnswer",
      "outputs": [
        {
          "components": [
            {
              "internalType": "string[][]",
              "name": "question",
              "type": "string[][]"
            },
            {
              "internalType": "bool",
              "name": "state",
              "type": "bool"
            }
          ],
          "internalType": "struct PKMCoint.StructArrayExter",
          "name": "",
          "type": "tuple"
        }
      ],
      "stateMutability": "view",
      "type": "function",
      "constant": true
    },
    {
      "inputs": [
        {
          "internalType": "uint256",
          "name": "_id",
          "type": "uint256"
        }
      ],
      "name": "getPokemonById",
      "outputs": [
        {
          "components": [
            {
              "internalType": "uint256",
              "name": "pokemonId",
              "type": "uint256"
            },
            {
              "internalType": "uint256",
              "name": "indexArray",
              "type": "uint256"
            },
            {
              "internalType": "string",
              "name": "name",
              "type": "string"
            },
            {
              "internalType": "string[]",
              "name": "tipes",
              "type": "string[]"
            },
            {
              "internalType": "string[]",
              "name": "abilities",
              "type": "string[]"
            },
            {
              "internalType": "string",
              "name": "image",
              "type": "string"
            },
            {
              "internalType": "uint256",
              "name": "randDna",
              "type": "uint256"
            },
            {
              "internalType": "bool",
              "name": "created",
              "type": "bool"
            }
          ],
          "internalType": "struct PokemonFactory.Pokemon",
          "name": "",
          "type": "tuple"
        }
      ],
      "stateMutability": "view",
      "type": "function",
      "constant": true
    },
    {
      "inputs": [
        {
          "internalType": "address",
          "name": "_owner",
          "type": "address"
        }
      ],
      "name": "getPokemonsByOwner",
      "outputs": [
        {
          "internalType": "uint256[]",
          "name": "",
          "type": "uint256[]"
        }
      ],
      "stateMutability": "view",
      "type": "function",
      "constant": true
    },
    {
      "inputs": [],
      "name": "getbalance",
      "outputs": [
        {
          "internalType": "uint256",
          "name": "",
          "type": "uint256"
        }
      ],
      "stateMutability": "view",
      "type": "function",
      "constant": true
    },
    {
      "inputs": [
        {
          "internalType": "address",
          "name": "spender",
          "type": "address"
        },
        {
          "internalType": "uint256",
          "name": "addedValue",
          "type": "uint256"
        }
      ],
      "name": "increaseAllowance",
      "outputs": [
        {
          "internalType": "bool",
          "name": "",
          "type": "bool"
        }
      ],
      "stateMutability": "nonpayable",
      "type": "function"
    },
    {
      "inputs": [
        {
          "internalType": "address",
          "name": "",
          "type": "address"
        }
      ],
      "name": "mapQuestions",
      "outputs": [
        {
          "internalType": "bool",
          "name": "state",
          "type": "bool"
        }
      ],
      "stateMutability": "view",
      "type": "function",
      "constant": true
    },
    {
      "inputs": [],
      "name": "name",
      "outputs": [
        {
          "internalType": "string",
          "name": "",
          "type": "string"
        }
      ],
      "stateMutability": "view",
      "type": "function",
      "constant": true
    },
    {
      "inputs": [],
      "name": "owner",
      "outputs": [
        {
          "internalType": "address payable",
          "name": "",
          "type": "address"
        }
      ],
      "stateMutability": "view",
      "type": "function",
      "constant": true
    },
    {
      "inputs": [
        {
          "internalType": "address",
          "name": "",
          "type": "address"
        }
      ],
      "name": "ownerPokemonCount",
      "outputs": [
        {
          "internalType": "uint256",
          "name": "",
          "type": "uint256"
        }
      ],
      "stateMutability": "view",
      "type": "function",
      "constant": true
    },
    {
      "inputs": [
        {
          "internalType": "uint256",
          "name": "",
          "type": "uint256"
        }
      ],
      "name": "pokemonToOwner",
      "outputs": [
        {
          "internalType": "address",
          "name": "",
          "type": "address"
        }
      ],
      "stateMutability": "view",
      "type": "function",
      "constant": true
    },
    {
      "inputs": [
        {
          "internalType": "uint256",
          "name": "",
          "type": "uint256"
        }
      ],
      "name": "pokemons",
      "outputs": [
        {
          "internalType": "uint256",
          "name": "pokemonId",
          "type": "uint256"
        },
        {
          "internalType": "uint256",
          "name": "indexArray",
          "type": "uint256"
        },
        {
          "internalType": "string",
          "name": "name",
          "type": "string"
        },
        {
          "internalType": "string",
          "name": "image",
          "type": "string"
        },
        {
          "internalType": "uint256",
          "name": "randDna",
          "type": "uint256"
        },
        {
          "internalType": "bool",
          "name": "created",
          "type": "bool"
        }
      ],
      "stateMutability": "view",
      "type": "function",
      "constant": true
    },
    {
      "inputs": [
        {
          "internalType": "address",
          "name": "_user",
          "type": "address"
        },
        {
          "internalType": "string[][]",
          "name": "_questionAndAnswers",
          "type": "string[][]"
        },
        {
          "internalType": "bool",
          "name": "_state",
          "type": "bool"
        }
      ],
      "name": "setAnswer",
      "outputs": [],
      "stateMutability": "nonpayable",
      "type": "function"
    },
    {
      "inputs": [
        {
          "internalType": "uint256",
          "name": "_fee",
          "type": "uint256"
        }
      ],
      "name": "setFee",
      "outputs": [],
      "stateMutability": "nonpayable",
      "type": "function"
    },
    {
      "inputs": [],
      "name": "symbol",
      "outputs": [
        {
          "internalType": "string",
          "name": "",
          "type": "string"
        }
      ],
      "stateMutability": "view",
      "type": "function",
      "constant": true
    },
    {
      "inputs": [],
      "name": "totalSupply",
      "outputs": [
        {
          "internalType": "uint256",
          "name": "",
          "type": "uint256"
        }
      ],
      "stateMutability": "view",
      "type": "function",
      "constant": true
    },
    {
      "inputs": [
        {
          "internalType": "address",
          "name": "to",
          "type": "address"
        },
        {
          "internalType": "uint256",
          "name": "amount",
          "type": "uint256"
        }
      ],
      "name": "transfer",
      "outputs": [
        {
          "internalType": "bool",
          "name": "",
          "type": "bool"
        }
      ],
      "stateMutability": "nonpayable",
      "type": "function"
    },
    {
      "inputs": [
        {
          "internalType": "address",
          "name": "from",
          "type": "address"
        },
        {
          "internalType": "address",
          "name": "to",
          "type": "address"
        },
        {
          "internalType": "uint256",
          "name": "amount",
          "type": "uint256"
        }
      ],
      "name": "transferFrom",
      "outputs": [
        {
          "internalType": "bool",
          "name": "",
          "type": "bool"
        }
      ],
      "stateMutability": "nonpayable",
      "type": "function"
    },
    {
      "inputs": [],
      "name": "withdraw",
      "outputs": [],
      "stateMutability": "nonpayable",
      "type": "function"
    },
    {
      "inputs": [
        {
          "internalType": "uint256",
          "name": "",
          "type": "uint256"
        }
      ],
      "name": "zombieApprovals",
      "outputs": [
        {
          "internalType": "address",
          "name": "",
          "type": "address"
        }
      ],
      "stateMutability": "view",
      "type": "function",
      "constant": true
    },
    {
      "inputs": [],
      "name": "getBalance",
      "outputs": [
        {
          "internalType": "uint256",
          "name": "",
          "type": "uint256"
        }
      ],
      "stateMutability": "view",
      "type": "function",
      "constant": true
    },
    {
      "inputs": [
        {
          "internalType": "address",
          "name": "_owner",
          "type": "address"
        }
      ],
      "name": "balanceOfMyContract",
      "outputs": [
        {
          "internalType": "uint256",
          "name": "",
          "type": "uint256"
        }
      ],
      "stateMutability": "view",
      "type": "function",
      "constant": true
    },
    {
      "inputs": [
        {
          "internalType": "uint256",
          "name": "_tokenId",
          "type": "uint256"
        }
      ],
      "name": "ownerOfMyContract",
      "outputs": [
        {
          "internalType": "address",
          "name": "",
          "type": "address"
        }
      ],
      "stateMutability": "view",
      "type": "function",
      "constant": true
    },
    {
      "inputs": [
        {
          "internalType": "address",
          "name": "_from",
          "type": "address"
        },
        {
          "internalType": "address",
          "name": "_to",
          "type": "address"
        },
        {
          "internalType": "uint256",
          "name": "_tokenId",
          "type": "uint256"
        }
      ],
      "name": "transferFromMyContract",
      "outputs": [],
      "stateMutability": "payable",
      "type": "function",
      "payable": true
    },
    {
      "inputs": [
        {
          "internalType": "address",
          "name": "_approved",
          "type": "address"
        },
        {
          "internalType": "uint256",
          "name": "_tokenId",
          "type": "uint256"
        }
      ],
      "name": "approveMyContract",
      "outputs": [],
      "stateMutability": "payable",
      "type": "function",
      "payable": true
    }
  ],
  "bytecode": "0x6080604052602a600055600054600a6200001a9190620004f1565b600155670de0b6b3a76400006007553480156200003657600080fd5b506040518060400160405280600881526020017f504b4d436f696e740000000000000000000000000000000000000000000000008152506040518060400160405280600381526020017f504b4d000000000000000000000000000000000000000000000000000000000081525033600260006101000a81548173ffffffffffffffffffffffffffffffffffffffff021916908373ffffffffffffffffffffffffffffffffffffffff16021790555081600b9080519060200190620000fc929190620002b4565b5080600c908051906020019062000115929190620002b4565b50505062000136336b033b2e3c9fd0803ce80000006200013c60201b60201c565b620006b4565b600073ffffffffffffffffffffffffffffffffffffffff168273ffffffffffffffffffffffffffffffffffffffff1603620001ae576040517f08c379a0000000000000000000000000000000000000000000000000000000008152600401620001a590620005a3565b60405180910390fd5b620001c260008383620002aa60201b60201c565b80600a6000828254620001d69190620005c5565b9250508190555080600860008473ffffffffffffffffffffffffffffffffffffffff1673ffffffffffffffffffffffffffffffffffffffff168152602001908152602001600020600082825401925050819055508173ffffffffffffffffffffffffffffffffffffffff16600073ffffffffffffffffffffffffffffffffffffffff167fddf252ad1be2c89b69c2b068fc378daa952ba7f163c4a11628f55a4df523b3ef836040516200028a919062000633565b60405180910390a3620002a660008383620002af60201b60201c565b5050565b505050565b505050565b828054620002c2906200067f565b90600052602060002090601f016020900481019282620002e6576000855562000332565b82601f106200030157805160ff191683800117855562000332565b8280016001018555821562000332579182015b828111156200033157825182559160200191906001019062000314565b5b50905062000341919062000345565b5090565b5b808211156200036057600081600090555060010162000346565b5090565b7f4e487b7100000000000000000000000000000000000000000000000000000000600052601160045260246000fd5b60008160011c9050919050565b6000808291508390505b6001851115620003f257808604811115620003ca57620003c962000364565b5b6001851615620003da5780820291505b8081029050620003ea8562000393565b9450620003aa565b94509492505050565b6000826200040d5760019050620004e0565b816200041d5760009050620004e0565b8160018114620004365760028114620004415762000477565b6001915050620004e0565b60ff84111562000456576200045562000364565b5b8360020a91508482111562000470576200046f62000364565b5b50620004e0565b5060208310610133831016604e8410600b8410161715620004b15782820a905083811115620004ab57620004aa62000364565b5b620004e0565b620004c08484846001620003a0565b92509050818404811115620004da57620004d962000364565b5b81810290505b9392505050565b6000819050919050565b6000620004fe82620004e7565b91506200050b83620004e7565b92506200053a7fffffffffffffffffffffffffffffffffffffffffffffffffffffffffffffffff8484620003fb565b905092915050565b600082825260208201905092915050565b7f45524332303a206d696e7420746f20746865207a65726f206164647265737300600082015250565b60006200058b601f8362000542565b9150620005988262000553565b602082019050919050565b60006020820190508181036000830152620005be816200057c565b9050919050565b6000620005d282620004e7565b9150620005df83620004e7565b9250827fffffffffffffffffffffffffffffffffffffffffffffffffffffffffffffffff0382111562000617576200061662000364565b5b828201905092915050565b6200062d81620004e7565b82525050565b60006020820190506200064a600083018462000622565b92915050565b7f4e487b7100000000000000000000000000000000000000000000000000000000600052602260045260246000fd5b600060028204905060018216806200069857607f821691505b602082108103620006ae57620006ad62000650565b5b50919050565b61429180620006c46000396000f3fe6080604052600436106101d85760003560e01c80635e916790116101025780639f44f3ba11610095578063bd1a8d6511610064578063bd1a8d651461073e578063dd62ed3e1461077b578063eaa10041146107b8578063f196cd08146107d4576101d8565b80639f44f3ba1461064a578063a457c2d714610687578063a9059cbb146106c4578063ad931b7e14610701576101d8565b8063731e4f5a116100d1578063731e4f5a1461058957806385831079146105b25780638da5cb5b146105f457806395d89b411461061f576101d8565b80635e916790146104dc57806367f2cae11461050757806369fe0e2d1461052357806370a082311461054c576101d8565b806323b872dd1161017a57806335beeb271161014957806335beeb2714610420578063395093511461045d5780633ccfd60b1461049a5780634d9b3d5d146104b1576101d8565b806323b872dd1461033e57806325963cca1461037b5780632f7467b3146103b8578063313ce567146103f5576101d8565b8063095ea7b3116101b6578063095ea7b31461026e5780630a3151a6146102ab57806312065fe0146102e857806318160ddd14610313576101d8565b80630389865e146101dd57806306fdde031461020657806307b51d9514610231575b600080fd5b3480156101e957600080fd5b5061020460048036038101906101ff9190612e8d565b610811565b005b34801561021257600080fd5b5061021b6108c7565b6040516102289190612f84565b60405180910390f35b34801561023d57600080fd5b5061025860048036038101906102539190612fa6565b610959565b60405161026591906131ed565b60405180910390f35b34801561027a57600080fd5b5061029560048036038101906102909190613245565b610aed565b6040516102a29190613294565b60405180910390f35b3480156102b757600080fd5b506102d260048036038101906102cd91906132af565b610b10565b6040516102df91906132eb565b60405180910390f35b3480156102f457600080fd5b506102fd610b4d565b60405161030a9190613315565b60405180910390f35b34801561031f57600080fd5b50610328610be5565b6040516103359190613315565b60405180910390f35b34801561034a57600080fd5b5061036560048036038101906103609190613330565b610bef565b6040516103729190613294565b60405180910390f35b34801561038757600080fd5b506103a2600480360381019061039d9190612fa6565b610c1e565b6040516103af9190613315565b60405180910390f35b3480156103c457600080fd5b506103df60048036038101906103da91906132af565b610c36565b6040516103ec91906132eb565b60405180910390f35b34801561040157600080fd5b5061040a610c69565b604051610417919061339f565b60405180910390f35b34801561042c57600080fd5b5061044760048036038101906104429190612fa6565b610c72565b6040516104549190613478565b60405180910390f35b34801561046957600080fd5b50610484600480360381019061047f9190613245565b610dc4565b6040516104919190613294565b60405180910390f35b3480156104a657600080fd5b506104af610dfb565b005b3480156104bd57600080fd5b506104c6610f5c565b6040516104d39190613315565b60405180910390f35b3480156104e857600080fd5b506104f1610f64565b6040516104fe9190613621565b60405180910390f35b610521600480360381019061051c9190613330565b6112d3565b005b34801561052f57600080fd5b5061054a600480360381019061054591906132af565b6113fc565b005b34801561055857600080fd5b50610573600480360381019061056e9190612fa6565b611496565b6040516105809190613315565b60405180910390f35b34801561059557600080fd5b506105b060048036038101906105ab9190613643565b6114df565b005b3480156105be57600080fd5b506105d960048036038101906105d491906132af565b611586565b6040516105eb96959493929190613740565b60405180910390f35b34801561060057600080fd5b506106096116ef565b60405161061691906137d0565b60405180910390f35b34801561062b57600080fd5b50610634611715565b6040516106419190612f84565b60405180910390f35b34801561065657600080fd5b50610671600480360381019061066c9190612fa6565b6117a7565b60405161067e9190613315565b60405180910390f35b34801561069357600080fd5b506106ae60048036038101906106a99190613245565b61185e565b6040516106bb9190613294565b60405180910390f35b3480156106d057600080fd5b506106eb60048036038101906106e69190613245565b6118d5565b6040516106f89190613294565b60405180910390f35b34801561070d57600080fd5b50610728600480360381019061072391906132af565b6118f8565b60405161073591906132eb565b60405180910390f35b34801561074a57600080fd5b50610765600480360381019061076091906132af565b61192b565b60405161077291906138b0565b60405180910390f35b34801561078757600080fd5b506107a2600480360381019061079d91906138d2565b611c77565b6040516107af9190613315565b60405180910390f35b6107d260048036038101906107cd9190613245565b611cfe565b005b3480156107e057600080fd5b506107fb60048036038101906107f69190612fa6565b611db9565b6040516108089190613294565b60405180910390f35b81600d60008573ffffffffffffffffffffffffffffffffffffffff1673ffffffffffffffffffffffffffffffffffffffff1681526020019081526020016000206000019080519060200190610867929190612867565b5080600d60008573ffffffffffffffffffffffffffffffffffffffff1673ffffffffffffffffffffffffffffffffffffffff16815260200190815260200160002060010160006101000a81548160ff021916908315150217905550505050565b6060600b80546108d690613941565b80601f016020809104026020016040519081016040528092919081815260200182805461090290613941565b801561094f5780601f106109245761010080835404028352916020019161094f565b820191906000526020600020905b81548152906001019060200180831161093257829003601f168201915b5050505050905090565b6109616128c7565b600d60008373ffffffffffffffffffffffffffffffffffffffff1673ffffffffffffffffffffffffffffffffffffffff16815260200190815260200160002060405180604001604052908160008201805480602002602001604051908101604052809291908181526020016000905b82821015610ac357838290600052602060002001805480602002602001604051908101604052809291908181526020016000905b82821015610ab0578382906000526020600020018054610a2390613941565b80601f0160208091040260200160405190810160405280929190818152602001828054610a4f90613941565b8015610a9c5780601f10610a7157610100808354040283529160200191610a9c565b820191906000526020600020905b815481529060010190602001808311610a7f57829003601f168201915b505050505081526020019060010190610a04565b50505050815260200190600101906109d0565b5050505081526020016001820160009054906101000a900460ff1615151515815250509050919050565b600080610af8611de4565b9050610b05818585611dec565b600191505092915050565b60006003600083815260200190815260200160002060009054906101000a900473ffffffffffffffffffffffffffffffffffffffff169050919050565b6000600260009054906101000a900473ffffffffffffffffffffffffffffffffffffffff1673ffffffffffffffffffffffffffffffffffffffff163373ffffffffffffffffffffffffffffffffffffffff1614610bdf576040517f08c379a0000000000000000000000000000000000000000000000000000000008152600401610bd6906139e4565b60405180910390fd5b47905090565b6000600a54905090565b600080610bfa611de4565b9050610c07858285611fb5565b610c12858585612041565b60019150509392505050565b60046020528060005260406000206000915090505481565b60036020528060005260406000206000915054906101000a900473ffffffffffffffffffffffffffffffffffffffff1681565b60006012905090565b60606000600460008473ffffffffffffffffffffffffffffffffffffffff1673ffffffffffffffffffffffffffffffffffffffff1681526020019081526020016000205467ffffffffffffffff811115610ccf57610cce612b5e565b5b604051908082528060200260200182016040528015610cfd5781602001602082028036833780820191505090505b5090506000805b600680549050811015610db9578473ffffffffffffffffffffffffffffffffffffffff166003600083815260200190815260200160002060009054906101000a900473ffffffffffffffffffffffffffffffffffffffff1673ffffffffffffffffffffffffffffffffffffffff1603610da65780838381518110610d8b57610d8a613a04565b5b6020026020010181815250508180610da290613a62565b9250505b8080610db190613a62565b915050610d04565b508192505050919050565b600080610dcf611de4565b9050610df0818585610de18589611c77565b610deb9190613aaa565b611dec565b600191505092915050565b600260009054906101000a900473ffffffffffffffffffffffffffffffffffffffff1673ffffffffffffffffffffffffffffffffffffffff163373ffffffffffffffffffffffffffffffffffffffff1614610e8b576040517f08c379a0000000000000000000000000000000000000000000000000000000008152600401610e82906139e4565b60405180910390fd5b6000600260009054906101000a900473ffffffffffffffffffffffffffffffffffffffff1673ffffffffffffffffffffffffffffffffffffffff1647604051610ed390613b31565b60006040518083038185875af1925050503d8060008114610f10576040519150601f19603f3d011682016040523d82523d6000602084013e610f15565b606091505b5050905080610f59576040517f08c379a0000000000000000000000000000000000000000000000000000000008152600401610f5090613b92565b60405180910390fd5b50565b600047905090565b60606006805480602002602001604051908101604052809291908181526020016000905b828210156112ca5783829060005260206000209060080201604051806101000160405290816000820154815260200160018201548152602001600282018054610fd090613941565b80601f0160208091040260200160405190810160405280929190818152602001828054610ffc90613941565b80156110495780601f1061101e57610100808354040283529160200191611049565b820191906000526020600020905b81548152906001019060200180831161102c57829003601f168201915b5050505050815260200160038201805480602002602001604051908101604052809291908181526020016000905b8282101561112357838290600052602060002001805461109690613941565b80601f01602080910402602001604051908101604052809291908181526020018280546110c290613941565b801561110f5780601f106110e45761010080835404028352916020019161110f565b820191906000526020600020905b8154815290600101906020018083116110f257829003601f168201915b505050505081526020019060010190611077565b50505050815260200160048201805480602002602001604051908101604052809291908181526020016000905b828210156111fc57838290600052602060002001805461116f90613941565b80601f016020809104026020016040519081016040528092919081815260200182805461119b90613941565b80156111e85780601f106111bd576101008083540402835291602001916111e8565b820191906000526020600020905b8154815290600101906020018083116111cb57829003601f168201915b505050505081526020019060010190611150565b50505050815260200160058201805461121490613941565b80601f016020809104026020016040519081016040528092919081815260200182805461124090613941565b801561128d5780601f106112625761010080835404028352916020019161128d565b820191906000526020600020905b81548152906001019060200180831161127057829003601f168201915b50505050508152602001600682015481526020016007820160009054906101000a900460ff16151515158152505081526020019060010190610f88565b50505050905090565b600754341115611318576040517f08c379a000000000000000000000000000000000000000000000000000000000815260040161130f90613bfe565b60405180910390fd5b3373ffffffffffffffffffffffffffffffffffffffff166003600083815260200190815260200160002060009054906101000a900473ffffffffffffffffffffffffffffffffffffffff1673ffffffffffffffffffffffffffffffffffffffff1614806113e357503373ffffffffffffffffffffffffffffffffffffffff166005600083815260200190815260200160002060009054906101000a900473ffffffffffffffffffffffffffffffffffffffff1673ffffffffffffffffffffffffffffffffffffffff16145b6113ec57600080fd5b6113f78383836122ba565b505050565b600260009054906101000a900473ffffffffffffffffffffffffffffffffffffffff1673ffffffffffffffffffffffffffffffffffffffff163373ffffffffffffffffffffffffffffffffffffffff161461148c576040517f08c379a0000000000000000000000000000000000000000000000000000000008152600401611483906139e4565b60405180910390fd5b8060078190555050565b6000600860008373ffffffffffffffffffffffffffffffffffffffff1673ffffffffffffffffffffffffffffffffffffffff168152602001908152602001600020549050919050565b600260009054906101000a900473ffffffffffffffffffffffffffffffffffffffff1673ffffffffffffffffffffffffffffffffffffffff163373ffffffffffffffffffffffffffffffffffffffff161461156f576040517f08c379a0000000000000000000000000000000000000000000000000000000008152600401611566906139e4565b60405180910390fd5b61157d8686868686866124a2565b50505050505050565b6006818154811061159657600080fd5b90600052602060002090600802016000915090508060000154908060010154908060020180546115c590613941565b80601f01602080910402602001604051908101604052809291908181526020018280546115f190613941565b801561163e5780601f106116135761010080835404028352916020019161163e565b820191906000526020600020905b81548152906001019060200180831161162157829003601f168201915b50505050509080600501805461165390613941565b80601f016020809104026020016040519081016040528092919081815260200182805461167f90613941565b80156116cc5780601f106116a1576101008083540402835291602001916116cc565b820191906000526020600020905b8154815290600101906020018083116116af57829003601f168201915b5050505050908060060154908060070160009054906101000a900460ff16905086565b600260009054906101000a900473ffffffffffffffffffffffffffffffffffffffff1681565b6060600c805461172490613941565b80601f016020809104026020016040519081016040528092919081815260200182805461175090613941565b801561179d5780601f106117725761010080835404028352916020019161179d565b820191906000526020600020905b81548152906001019060200180831161178057829003601f168201915b5050505050905090565b60008073ffffffffffffffffffffffffffffffffffffffff168273ffffffffffffffffffffffffffffffffffffffff1603611817576040517f08c379a000000000000000000000000000000000000000000000000000000000815260040161180e90613c6a565b60405180910390fd5b600460008373ffffffffffffffffffffffffffffffffffffffff1673ffffffffffffffffffffffffffffffffffffffff168152602001908152602001600020549050919050565b600080611869611de4565b905060006118778286611c77565b9050838110156118bc576040517f08c379a00000000000000000000000000000000000000000000000000000000081526004016118b390613cfc565b60405180910390fd5b6118c98286868403611dec565b60019250505092915050565b6000806118e0611de4565b90506118ed818585612041565b600191505092915050565b60056020528060005260406000206000915054906101000a900473ffffffffffffffffffffffffffffffffffffffff1681565b6119336128e3565b6006828154811061194757611946613a04565b5b906000526020600020906008020160405180610100016040529081600082015481526020016001820154815260200160028201805461198590613941565b80601f01602080910402602001604051908101604052809291908181526020018280546119b190613941565b80156119fe5780601f106119d3576101008083540402835291602001916119fe565b820191906000526020600020905b8154815290600101906020018083116119e157829003601f168201915b5050505050815260200160038201805480602002602001604051908101604052809291908181526020016000905b82821015611ad8578382906000526020600020018054611a4b90613941565b80601f0160208091040260200160405190810160405280929190818152602001828054611a7790613941565b8015611ac45780601f10611a9957610100808354040283529160200191611ac4565b820191906000526020600020905b815481529060010190602001808311611aa757829003601f168201915b505050505081526020019060010190611a2c565b50505050815260200160048201805480602002602001604051908101604052809291908181526020016000905b82821015611bb1578382906000526020600020018054611b2490613941565b80601f0160208091040260200160405190810160405280929190818152602001828054611b5090613941565b8015611b9d5780601f10611b7257610100808354040283529160200191611b9d565b820191906000526020600020905b815481529060010190602001808311611b8057829003601f168201915b505050505081526020019060010190611b05565b505050508152602001600582018054611bc990613941565b80601f0160208091040260200160405190810160405280929190818152602001828054611bf590613941565b8015611c425780601f10611c1757610100808354040283529160200191611c42565b820191906000526020600020905b815481529060010190602001808311611c2557829003601f168201915b50505050508152602001600682015481526020016007820160009054906101000a900460ff1615151515815250509050919050565b6000600960008473ffffffffffffffffffffffffffffffffffffffff1673ffffffffffffffffffffffffffffffffffffffff16815260200190815260200160002060008373ffffffffffffffffffffffffffffffffffffffff1673ffffffffffffffffffffffffffffffffffffffff16815260200190815260200160002054905092915050565b816005600083815260200190815260200160002060006101000a81548173ffffffffffffffffffffffffffffffffffffffff021916908373ffffffffffffffffffffffffffffffffffffffff1602179055508173ffffffffffffffffffffffffffffffffffffffff163373ffffffffffffffffffffffffffffffffffffffff167f8c5be1e5ebec7d5bd14f71427d1e84f3dd0314c0f7b2291e5b200ac8c7c3b92583604051611dad9190613315565b60405180910390a35050565b600d6020528060005260406000206000915090508060010160009054906101000a900460ff16905081565b600033905090565b600073ffffffffffffffffffffffffffffffffffffffff168373ffffffffffffffffffffffffffffffffffffffff1603611e5b576040517f08c379a0000000000000000000000000000000000000000000000000000000008152600401611e5290613d8e565b60405180910390fd5b600073ffffffffffffffffffffffffffffffffffffffff168273ffffffffffffffffffffffffffffffffffffffff1603611eca576040517f08c379a0000000000000000000000000000000000000000000000000000000008152600401611ec190613e20565b60405180910390fd5b80600960008573ffffffffffffffffffffffffffffffffffffffff1673ffffffffffffffffffffffffffffffffffffffff16815260200190815260200160002060008473ffffffffffffffffffffffffffffffffffffffff1673ffffffffffffffffffffffffffffffffffffffff168152602001908152602001600020819055508173ffffffffffffffffffffffffffffffffffffffff168373ffffffffffffffffffffffffffffffffffffffff167f8c5be1e5ebec7d5bd14f71427d1e84f3dd0314c0f7b2291e5b200ac8c7c3b92583604051611fa89190613315565b60405180910390a3505050565b6000611fc18484611c77565b90507fffffffffffffffffffffffffffffffffffffffffffffffffffffffffffffffff811461203b578181101561202d576040517f08c379a000000000000000000000000000000000000000000000000000000000815260040161202490613e8c565b60405180910390fd5b61203a8484848403611dec565b5b50505050565b600073ffffffffffffffffffffffffffffffffffffffff168373ffffffffffffffffffffffffffffffffffffffff16036120b0576040517f08c379a00000000000000000000000000000000000000000000000000000000081526004016120a790613f1e565b60405180910390fd5b600073ffffffffffffffffffffffffffffffffffffffff168273ffffffffffffffffffffffffffffffffffffffff160361211f576040517f08c379a000000000000000000000000000000000000000000000000000000000815260040161211690613fb0565b60405180910390fd5b61212a8383836127e6565b6000600860008573ffffffffffffffffffffffffffffffffffffffff1673ffffffffffffffffffffffffffffffffffffffff168152602001908152602001600020549050818110156121b1576040517f08c379a00000000000000000000000000000000000000000000000000000000081526004016121a890614042565b60405180910390fd5b818103600860008673ffffffffffffffffffffffffffffffffffffffff1673ffffffffffffffffffffffffffffffffffffffff1681526020019081526020016000208190555081600860008573ffffffffffffffffffffffffffffffffffffffff1673ffffffffffffffffffffffffffffffffffffffff168152602001908152602001600020600082825401925050819055508273ffffffffffffffffffffffffffffffffffffffff168473ffffffffffffffffffffffffffffffffffffffff167fddf252ad1be2c89b69c2b068fc378daa952ba7f163c4a11628f55a4df523b3ef846040516122a19190613315565b60405180910390a36122b48484846127eb565b50505050565b61230d6001600460008573ffffffffffffffffffffffffffffffffffffffff1673ffffffffffffffffffffffffffffffffffffffff168152602001908152602001600020546127f090919063ffffffff16565b600460008473ffffffffffffffffffffffffffffffffffffffff1673ffffffffffffffffffffffffffffffffffffffff168152602001908152602001600020819055506123a36001600460008673ffffffffffffffffffffffffffffffffffffffff1673ffffffffffffffffffffffffffffffffffffffff1681526020019081526020016000205461280690919063ffffffff16565b600460008573ffffffffffffffffffffffffffffffffffffffff1673ffffffffffffffffffffffffffffffffffffffff16815260200190815260200160002081905550816003600083815260200190815260200160002060006101000a81548173ffffffffffffffffffffffffffffffffffffffff021916908373ffffffffffffffffffffffffffffffffffffffff1602179055508173ffffffffffffffffffffffffffffffffffffffff168373ffffffffffffffffffffffffffffffffffffffff167fddf252ad1be2c89b69c2b068fc378daa952ba7f163c4a11628f55a4df523b3ef836040516124959190613315565b60405180910390a3505050565b606060005b6006805490508110156125315787600682815481106124c9576124c8613a04565b5b9060005260206000209060080201600001540361251e576040518060400160405280601481526020017f656c20706f6b656d6f6e207961206578697374650000000000000000000000008152509150506127dc565b808061252990613a62565b9150506124a7565b5060006006805490509050600061254988888461281c565b905060066040518061010001604052808b81526020018481526020018a81526020018981526020018881526020018781526020018381526020018615158152509080600181540180825580915050600190039060005260206000209060080201600090919091909150600082015181600001556020820151816001015560408201518160020190805190602001906125e292919061292a565b5060608201518160030190805190602001906125ff9291906129b0565b50608082015181600401908051906020019061261c9291906129b0565b5060a082015181600501908051906020019061263992919061292a565b5060c0820151816006015560e08201518160070160006101000a81548160ff02191690831515021790555050506000600160068054905061267a9190614062565b9050336003600083815260200190815260200160002060006101000a81548173ffffffffffffffffffffffffffffffffffffffff021916908373ffffffffffffffffffffffffffffffffffffffff160217905550612718600460003373ffffffffffffffffffffffffffffffffffffffff1673ffffffffffffffffffffffffffffffffffffffff1681526020019081526020016000205460016127f0565b600460003373ffffffffffffffffffffffffffffffffffffffff1673ffffffffffffffffffffffffffffffffffffffff168152602001908152602001600020819055507f2a3b3d2b43a550772655479e81354c5370c0f4f70d8cbfc7f520c957d7fdea17818b8b8b8b878b8d60405161279898979695949392919061411c565b60405180910390a16040518060400160405280601b81526020017f706f6b656d6f6e2063726561646f20657869746f73616d656e7465000000000081525093505050505b9695505050505050565b505050565b505050565b600081836127fe9190613aaa565b905092915050565b600081836128149190614062565b905092915050565b600080848484604051602001612834939291906141b6565b6040516020818303038152906040528051906020012060001c90506001548161285d919061422a565b9150509392505050565b8280548282559060005260206000209081019282156128b6579160200282015b828111156128b55782518290805190602001906128a59291906129b0565b5091602001919060010190612887565b5b5090506128c39190612a10565b5090565b6040518060400160405280606081526020016000151581525090565b604051806101000160405280600081526020016000815260200160608152602001606081526020016060815260200160608152602001600081526020016000151581525090565b82805461293690613941565b90600052602060002090601f016020900481019282612958576000855561299f565b82601f1061297157805160ff191683800117855561299f565b8280016001018555821561299f579182015b8281111561299e578251825591602001919060010190612983565b5b5090506129ac9190612a34565b5090565b8280548282559060005260206000209081019282156129ff579160200282015b828111156129fe5782518290805190602001906129ee92919061292a565b50916020019190600101906129d0565b5b509050612a0c9190612a51565b5090565b5b80821115612a305760008181612a279190612a75565b50600101612a11565b5090565b5b80821115612a4d576000816000905550600101612a35565b5090565b5b80821115612a715760008181612a689190612a96565b50600101612a52565b5090565b5080546000825590600052602060002090810190612a939190612a51565b50565b508054612aa290613941565b6000825580601f10612ab45750612ad3565b601f016020900490600052602060002090810190612ad29190612a34565b5b50565b6000604051905090565b600080fd5b600080fd5b600073ffffffffffffffffffffffffffffffffffffffff82169050919050565b6000612b1582612aea565b9050919050565b612b2581612b0a565b8114612b3057600080fd5b50565b600081359050612b4281612b1c565b92915050565b600080fd5b6000601f19601f8301169050919050565b7f4e487b7100000000000000000000000000000000000000000000000000000000600052604160045260246000fd5b612b9682612b4d565b810181811067ffffffffffffffff82111715612bb557612bb4612b5e565b5b80604052505050565b6000612bc8612ad6565b9050612bd48282612b8d565b919050565b600067ffffffffffffffff821115612bf457612bf3612b5e565b5b602082029050602081019050919050565b600080fd5b600067ffffffffffffffff821115612c2557612c24612b5e565b5b602082029050602081019050919050565b600080fd5b600067ffffffffffffffff821115612c5657612c55612b5e565b5b612c5f82612b4d565b9050602081019050919050565b82818337600083830152505050565b6000612c8e612c8984612c3b565b612bbe565b905082815260208101848484011115612caa57612ca9612c36565b5b612cb5848285612c6c565b509392505050565b600082601f830112612cd257612cd1612b48565b5b8135612ce2848260208601612c7b565b91505092915050565b6000612cfe612cf984612c0a565b612bbe565b90508083825260208201905060208402830185811115612d2157612d20612c05565b5b835b81811015612d6857803567ffffffffffffffff811115612d4657612d45612b48565b5b808601612d538982612cbd565b85526020850194505050602081019050612d23565b5050509392505050565b600082601f830112612d8757612d86612b48565b5b8135612d97848260208601612ceb565b91505092915050565b6000612db3612dae84612bd9565b612bbe565b90508083825260208201905060208402830185811115612dd657612dd5612c05565b5b835b81811015612e1d57803567ffffffffffffffff811115612dfb57612dfa612b48565b5b808601612e088982612d72565b85526020850194505050602081019050612dd8565b5050509392505050565b600082601f830112612e3c57612e3b612b48565b5b8135612e4c848260208601612da0565b91505092915050565b60008115159050919050565b612e6a81612e55565b8114612e7557600080fd5b50565b600081359050612e8781612e61565b92915050565b600080600060608486031215612ea657612ea5612ae0565b5b6000612eb486828701612b33565b935050602084013567ffffffffffffffff811115612ed557612ed4612ae5565b5b612ee186828701612e27565b9250506040612ef286828701612e78565b9150509250925092565b600081519050919050565b600082825260208201905092915050565b60005b83811015612f36578082015181840152602081019050612f1b565b83811115612f45576000848401525b50505050565b6000612f5682612efc565b612f608185612f07565b9350612f70818560208601612f18565b612f7981612b4d565b840191505092915050565b60006020820190508181036000830152612f9e8184612f4b565b905092915050565b600060208284031215612fbc57612fbb612ae0565b5b6000612fca84828501612b33565b91505092915050565b600081519050919050565b600082825260208201905092915050565b6000819050602082019050919050565b600081519050919050565b600082825260208201905092915050565b6000819050602082019050919050565b600082825260208201905092915050565b600061304782612efc565b613051818561302b565b9350613061818560208601612f18565b61306a81612b4d565b840191505092915050565b6000613081838361303c565b905092915050565b6000602082019050919050565b60006130a182612fff565b6130ab818561300a565b9350836020820285016130bd8561301b565b8060005b858110156130f957848403895281516130da8582613075565b94506130e583613089565b925060208a019950506001810190506130c1565b50829750879550505050505092915050565b60006131178383613096565b905092915050565b6000602082019050919050565b600061313782612fd3565b6131418185612fde565b93508360208202850161315385612fef565b8060005b8581101561318f5784840389528151613170858261310b565b945061317b8361311f565b925060208a01995050600181019050613157565b50829750879550505050505092915050565b6131aa81612e55565b82525050565b600060408301600083015184820360008601526131cd828261312c565b91505060208301516131e260208601826131a1565b508091505092915050565b6000602082019050818103600083015261320781846131b0565b905092915050565b6000819050919050565b6132228161320f565b811461322d57600080fd5b50565b60008135905061323f81613219565b92915050565b6000806040838503121561325c5761325b612ae0565b5b600061326a85828601612b33565b925050602061327b85828601613230565b9150509250929050565b61328e81612e55565b82525050565b60006020820190506132a96000830184613285565b92915050565b6000602082840312156132c5576132c4612ae0565b5b60006132d384828501613230565b91505092915050565b6132e581612b0a565b82525050565b600060208201905061330060008301846132dc565b92915050565b61330f8161320f565b82525050565b600060208201905061332a6000830184613306565b92915050565b60008060006060848603121561334957613348612ae0565b5b600061335786828701612b33565b935050602061336886828701612b33565b925050604061337986828701613230565b9150509250925092565b600060ff82169050919050565b61339981613383565b82525050565b60006020820190506133b46000830184613390565b92915050565b600081519050919050565b600082825260208201905092915050565b6000819050602082019050919050565b6133ef8161320f565b82525050565b600061340183836133e6565b60208301905092915050565b6000602082019050919050565b6000613425826133ba565b61342f81856133c5565b935061343a836133d6565b8060005b8381101561346b57815161345288826133f5565b975061345d8361340d565b92505060018101905061343e565b5085935050505092915050565b60006020820190508181036000830152613492818461341a565b905092915050565b600081519050919050565b600082825260208201905092915050565b6000819050602082019050919050565b6000610100830160008301516134df60008601826133e6565b5060208301516134f260208601826133e6565b506040830151848203604086015261350a828261303c565b915050606083015184820360608601526135248282613096565b9150506080830151848203608086015261353e8282613096565b91505060a083015184820360a0860152613558828261303c565b91505060c083015161356d60c08601826133e6565b5060e083015161358060e08601826131a1565b508091505092915050565b600061359783836134c6565b905092915050565b6000602082019050919050565b60006135b78261349a565b6135c181856134a5565b9350836020820285016135d3856134b6565b8060005b8581101561360f57848403895281516135f0858261358b565b94506135fb8361359f565b925060208a019950506001810190506135d7565b50829750879550505050505092915050565b6000602082019050818103600083015261363b81846135ac565b905092915050565b60008060008060008060c087890312156136605761365f612ae0565b5b600061366e89828a01613230565b965050602087013567ffffffffffffffff81111561368f5761368e612ae5565b5b61369b89828a01612cbd565b955050604087013567ffffffffffffffff8111156136bc576136bb612ae5565b5b6136c889828a01612d72565b945050606087013567ffffffffffffffff8111156136e9576136e8612ae5565b5b6136f589828a01612d72565b935050608087013567ffffffffffffffff81111561371657613715612ae5565b5b61372289828a01612cbd565b92505060a061373389828a01612e78565b9150509295509295509295565b600060c0820190506137556000830189613306565b6137626020830188613306565b81810360408301526137748187612f4b565b905081810360608301526137888186612f4b565b90506137976080830185613306565b6137a460a0830184613285565b979650505050505050565b60006137ba82612aea565b9050919050565b6137ca816137af565b82525050565b60006020820190506137e560008301846137c1565b92915050565b60006101008301600083015161380460008601826133e6565b50602083015161381760208601826133e6565b506040830151848203604086015261382f828261303c565b915050606083015184820360608601526138498282613096565b915050608083015184820360808601526138638282613096565b91505060a083015184820360a086015261387d828261303c565b91505060c083015161389260c08601826133e6565b5060e08301516138a560e08601826131a1565b508091505092915050565b600060208201905081810360008301526138ca81846137eb565b905092915050565b600080604083850312156138e9576138e8612ae0565b5b60006138f785828601612b33565b925050602061390885828601612b33565b9150509250929050565b7f4e487b7100000000000000000000000000000000000000000000000000000000600052602260045260246000fd5b6000600282049050600182168061395957607f821691505b60208210810361396c5761396b613912565b5b50919050565b7f546869732066756e6374696f6e206973207265737472696374656420746f207460008201527f686520636f6e74726163742773206f776e657200000000000000000000000000602082015250565b60006139ce603383612f07565b91506139d982613972565b604082019050919050565b600060208201905081810360008301526139fd816139c1565b9050919050565b7f4e487b7100000000000000000000000000000000000000000000000000000000600052603260045260246000fd5b7f4e487b7100000000000000000000000000000000000000000000000000000000600052601160045260246000fd5b6000613a6d8261320f565b91507fffffffffffffffffffffffffffffffffffffffffffffffffffffffffffffffff8203613a9f57613a9e613a33565b5b600182019050919050565b6000613ab58261320f565b9150613ac08361320f565b9250827fffffffffffffffffffffffffffffffffffffffffffffffffffffffffffffffff03821115613af557613af4613a33565b5b828201905092915050565b600081905092915050565b50565b6000613b1b600083613b00565b9150613b2682613b0b565b600082019050919050565b6000613b3c82613b0e565b9150819050919050565b7f4661696c656420746f2073656e64204574686572000000000000000000000000600082015250565b6000613b7c601483612f07565b9150613b8782613b46565b602082019050919050565b60006020820190508181036000830152613bab81613b6f565b9050919050565b7f696e73756666696369656e74207061796d656e74000000000000000000000000600082015250565b6000613be8601483612f07565b9150613bf382613bb2565b602082019050919050565b60006020820190508181036000830152613c1781613bdb565b9050919050565b7f4552433732313a206d696e7420746f20746865207a65726f2061646472657373600082015250565b6000613c54602083612f07565b9150613c5f82613c1e565b602082019050919050565b60006020820190508181036000830152613c8381613c47565b9050919050565b7f45524332303a2064656372656173656420616c6c6f77616e63652062656c6f7760008201527f207a65726f000000000000000000000000000000000000000000000000000000602082015250565b6000613ce6602583612f07565b9150613cf182613c8a565b604082019050919050565b60006020820190508181036000830152613d1581613cd9565b9050919050565b7f45524332303a20617070726f76652066726f6d20746865207a65726f2061646460008201527f7265737300000000000000000000000000000000000000000000000000000000602082015250565b6000613d78602483612f07565b9150613d8382613d1c565b604082019050919050565b60006020820190508181036000830152613da781613d6b565b9050919050565b7f45524332303a20617070726f766520746f20746865207a65726f20616464726560008201527f7373000000000000000000000000000000000000000000000000000000000000602082015250565b6000613e0a602283612f07565b9150613e1582613dae565b604082019050919050565b60006020820190508181036000830152613e3981613dfd565b9050919050565b7f45524332303a20696e73756666696369656e7420616c6c6f77616e6365000000600082015250565b6000613e76601d83612f07565b9150613e8182613e40565b602082019050919050565b60006020820190508181036000830152613ea581613e69565b9050919050565b7f45524332303a207472616e736665722066726f6d20746865207a65726f20616460008201527f6472657373000000000000000000000000000000000000000000000000000000602082015250565b6000613f08602583612f07565b9150613f1382613eac565b604082019050919050565b60006020820190508181036000830152613f3781613efb565b9050919050565b7f45524332303a207472616e7366657220746f20746865207a65726f206164647260008201527f6573730000000000000000000000000000000000000000000000000000000000602082015250565b6000613f9a602383612f07565b9150613fa582613f3e565b604082019050919050565b60006020820190508181036000830152613fc981613f8d565b9050919050565b7f45524332303a207472616e7366657220616d6f756e742065786365656473206260008201527f616c616e63650000000000000000000000000000000000000000000000000000602082015250565b600061402c602683612f07565b915061403782613fd0565b604082019050919050565b6000602082019050818103600083015261405b8161401f565b9050919050565b600061406d8261320f565b91506140788361320f565b92508282101561408b5761408a613a33565b5b828203905092915050565b600082825260208201905092915050565b60006140b282612fff565b6140bc8185614096565b9350836020820285016140ce8561301b565b8060005b8581101561410a57848403895281516140eb8582613075565b94506140f683613089565b925060208a019950506001810190506140d2565b50829750879550505050505092915050565b600061010082019050614132600083018b613306565b61413f602083018a613306565b81810360408301526141518189612f4b565b9050818103606083015261416581886140a7565b9050818103608083015261417981876140a7565b905061418860a0830186613306565b61419560c0830185613285565b81810360e08301526141a78184612f4b565b90509998505050505050505050565b600060608201905081810360008301526141d08186612f4b565b905081810360208301526141e481856140a7565b90506141f36040830184613306565b949350505050565b7f4e487b7100000000000000000000000000000000000000000000000000000000600052601260045260246000fd5b60006142358261320f565b91506142408361320f565b9250826142505761424f6141fb565b5b82820690509291505056fea26469706673582212207f4e4e17c5bb72f38b80edda3ea6c47effcc27225f90f6e043f1a72b48dfb2e664736f6c634300080e0033",
  "immutableReferences": {},
  "source": "// SPDX-License-Identifier: MIT\npragma solidity >=0.4.22 <0.9.0;\n\nimport \"./PokemonHelper.sol\";\nimport \"./PKMCoint.sol\";\n\ncontract PokemonOwnership is PokemonHelper, PKMCoint {\n    using SafeMath for uint256;\n\n    function getBalance() view public onlyOwner returns(uint) {\n        return address(this).balance;\n    }\n\n    function balanceOfMyContract(address _owner) external view returns (uint256) {\n        require(_owner != address(0), \"ERC721: mint to the zero address\");\n        return ownerPokemonCount[_owner];\n    }\n\n    function ownerOfMyContract(uint256 _tokenId) external view returns (address) {\n        return pokemonToOwner[_tokenId];\n    }\n\n    function _transferMyContract(address _from, address _to, uint256 _tokenId) private {\n        ownerPokemonCount[_to] = ownerPokemonCount[_to].add(1);\n        ownerPokemonCount[_from] = ownerPokemonCount[_from].sub(1);\n        pokemonToOwner[_tokenId] = _to;\n        emit Transfer(_from, _to, _tokenId);\n    }\n\n    function transferFromMyContract(address _from, address _to, uint256 _tokenId) public payable verifyPayment {\n        require(pokemonToOwner[_tokenId] == msg.sender || zombieApprovals[_tokenId] == msg.sender);\n        _transferMyContract(_from, _to, _tokenId);\n    }\n\n    function approveMyContract(address _approved, uint256 _tokenId) external payable {\n        zombieApprovals[_tokenId] = _approved;\n        emit Approval(msg.sender, _approved, _tokenId);\n    }\n\n}\n",
  "sourcePath": "/Users/alejandrorusinoff/Desktop/Trabajo/Practicas/MarketToken/truffle/contracts/PokemonOwnership.sol",
  "compiler": {
    "name": "solc",
    "version": "0.8.14+commit.80d49f37.Emscripten.clang"
  },
  "schemaVersion": "3.4.7",
  "updatedAt": "2023-04-23T15:35:15.384Z",
  "networkType": "ethereum",
  "devdoc": {
    "kind": "dev",
    "methods": {
      "allowance(address,address)": {
        "details": "See {IERC20-allowance}."
      },
      "approve(address,uint256)": {
        "details": "See {IERC20-approve}. NOTE: If `amount` is the maximum `uint256`, the allowance is not updated on `transferFrom`. This is semantically equivalent to an infinite approval. Requirements: - `spender` cannot be the zero address."
      },
      "balanceOf(address)": {
        "details": "See {IERC20-balanceOf}."
      },
      "decimals()": {
        "details": "Returns the number of decimals used to get its user representation. For example, if `decimals` equals `2`, a balance of `505` tokens should be displayed to a user as `5.05` (`505 / 10 ** 2`). Tokens usually opt for a value of 18, imitating the relationship between Ether and Wei. This is the value {ERC20} uses, unless this function is overridden; NOTE: This information is only used for _display_ purposes: it in no way affects any of the arithmetic of the contract, including {IERC20-balanceOf} and {IERC20-transfer}."
      },
      "decreaseAllowance(address,uint256)": {
        "details": "Atomically decreases the allowance granted to `spender` by the caller. This is an alternative to {approve} that can be used as a mitigation for problems described in {IERC20-approve}. Emits an {Approval} event indicating the updated allowance. Requirements: - `spender` cannot be the zero address. - `spender` must have allowance for the caller of at least `subtractedValue`."
      },
      "increaseAllowance(address,uint256)": {
        "details": "Atomically increases the allowance granted to `spender` by the caller. This is an alternative to {approve} that can be used as a mitigation for problems described in {IERC20-approve}. Emits an {Approval} event indicating the updated allowance. Requirements: - `spender` cannot be the zero address."
      },
      "name()": {
        "details": "Returns the name of the token."
      },
      "symbol()": {
        "details": "Returns the symbol of the token, usually a shorter version of the name."
      },
      "totalSupply()": {
        "details": "See {IERC20-totalSupply}."
      },
      "transfer(address,uint256)": {
        "details": "See {IERC20-transfer}. Requirements: - `to` cannot be the zero address. - the caller must have a balance of at least `amount`."
      },
      "transferFrom(address,address,uint256)": {
        "details": "See {IERC20-transferFrom}. Emits an {Approval} event indicating the updated allowance. This is not required by the EIP. See the note at the beginning of {ERC20}. NOTE: Does not update the allowance if the current allowance is the maximum `uint256`. Requirements: - `from` and `to` cannot be the zero address. - `from` must have a balance of at least `amount`. - the caller must have allowance for ``from``'s tokens of at least `amount`."
      }
    },
    "version": 1
  },
  "userdoc": {
    "kind": "user",
    "methods": {},
    "version": 1
  }
}