{
  "contractName": "PokemonFactory",
  "abi": [
    {
      "inputs": [],
      "stateMutability": "payable",
      "type": "constructor",
      "payable": true
    },
    {
      "anonymous": false,
      "inputs": [
        {
          "indexed": false,
          "internalType": "string",
          "name": "_msg",
          "type": "string"
        },
        {
          "indexed": false,
          "internalType": "uint256",
          "name": "_id",
          "type": "uint256"
        }
      ],
      "name": "Msg",
      "type": "event"
    },
    {
      "anonymous": false,
      "inputs": [
        {
          "indexed": false,
          "internalType": "uint256",
          "name": "_id",
          "type": "uint256"
        },
        {
          "indexed": false,
          "internalType": "uint256",
          "name": "_pokemonId",
          "type": "uint256"
        },
        {
          "indexed": false,
          "internalType": "string",
          "name": "_name",
          "type": "string"
        },
        {
          "indexed": false,
          "internalType": "string[]",
          "name": "_tipe",
          "type": "string[]"
        },
        {
          "indexed": false,
          "internalType": "string[]",
          "name": "_abilities",
          "type": "string[]"
        },
        {
          "indexed": false,
          "internalType": "uint256",
          "name": "_randDna",
          "type": "uint256"
        },
        {
          "indexed": false,
          "internalType": "bool",
          "name": "_created",
          "type": "bool"
        },
        {
          "indexed": false,
          "internalType": "string",
          "name": "_image",
          "type": "string"
        }
      ],
      "name": "NewPokemon",
      "type": "event"
    },
    {
      "inputs": [],
      "name": "owner",
      "outputs": [
        {
          "internalType": "address payable",
          "name": "",
          "type": "address"
        }
      ],
      "stateMutability": "view",
      "type": "function",
      "constant": true
    },
    {
      "inputs": [
        {
          "internalType": "address",
          "name": "",
          "type": "address"
        }
      ],
      "name": "ownerPokemonCount",
      "outputs": [
        {
          "internalType": "uint256",
          "name": "",
          "type": "uint256"
        }
      ],
      "stateMutability": "view",
      "type": "function",
      "constant": true
    },
    {
      "inputs": [
        {
          "internalType": "uint256",
          "name": "",
          "type": "uint256"
        }
      ],
      "name": "pokemonToOwner",
      "outputs": [
        {
          "internalType": "address",
          "name": "",
          "type": "address"
        }
      ],
      "stateMutability": "view",
      "type": "function",
      "constant": true
    },
    {
      "inputs": [
        {
          "internalType": "uint256",
          "name": "",
          "type": "uint256"
        }
      ],
      "name": "pokemons",
      "outputs": [
        {
          "internalType": "uint256",
          "name": "pokemonId",
          "type": "uint256"
        },
        {
          "internalType": "uint256",
          "name": "indexArray",
          "type": "uint256"
        },
        {
          "internalType": "string",
          "name": "name",
          "type": "string"
        },
        {
          "internalType": "string",
          "name": "image",
          "type": "string"
        },
        {
          "internalType": "uint256",
          "name": "randDna",
          "type": "uint256"
        },
        {
          "internalType": "bool",
          "name": "created",
          "type": "bool"
        }
      ],
      "stateMutability": "view",
      "type": "function",
      "constant": true
    },
    {
      "inputs": [
        {
          "internalType": "uint256",
          "name": "",
          "type": "uint256"
        }
      ],
      "name": "zombieApprovals",
      "outputs": [
        {
          "internalType": "address",
          "name": "",
          "type": "address"
        }
      ],
      "stateMutability": "view",
      "type": "function",
      "constant": true
    },
    {
      "inputs": [
        {
          "internalType": "uint256",
          "name": "_pokemonId",
          "type": "uint256"
        },
        {
          "internalType": "string",
          "name": "_name",
          "type": "string"
        },
        {
          "internalType": "string[]",
          "name": "_tipe",
          "type": "string[]"
        },
        {
          "internalType": "string[]",
          "name": "_abilities",
          "type": "string[]"
        },
        {
          "internalType": "string",
          "name": "_image",
          "type": "string"
        },
        {
          "internalType": "bool",
          "name": "_created",
          "type": "bool"
        }
      ],
      "name": "createRandomPokemon",
      "outputs": [],
      "stateMutability": "nonpayable",
      "type": "function"
    }
  ],
  "bytecode": "0x6080604052602a600055600054600a6200001a9190620001f1565b60015533600260006101000a81548173ffffffffffffffffffffffffffffffffffffffff021916908373ffffffffffffffffffffffffffffffffffffffff16021790555062000242565b7f4e487b7100000000000000000000000000000000000000000000000000000000600052601160045260246000fd5b60008160011c9050919050565b6000808291508390505b6001851115620000f257808604811115620000ca57620000c962000064565b5b6001851615620000da5780820291505b8081029050620000ea8562000093565b9450620000aa565b94509492505050565b6000826200010d5760019050620001e0565b816200011d5760009050620001e0565b8160018114620001365760028114620001415762000177565b6001915050620001e0565b60ff84111562000156576200015562000064565b5b8360020a91508482111562000170576200016f62000064565b5b50620001e0565b5060208310610133831016604e8410600b8410161715620001b15782820a905083811115620001ab57620001aa62000064565b5b620001e0565b620001c08484846001620000a0565b92509050818404811115620001da57620001d962000064565b5b81810290505b9392505050565b6000819050919050565b6000620001fe82620001e7565b91506200020b83620001e7565b92506200023a7fffffffffffffffffffffffffffffffffffffffffffffffffffffffffffffffff8484620000fb565b905092915050565b6113c280620002526000396000f3fe608060405234801561001057600080fd5b50600436106100625760003560e01c806325963cca146100675780632f7467b314610097578063731e4f5a146100c757806385831079146100e35780638da5cb5b14610118578063ad931b7e14610136575b600080fd5b610081600480360381019061007c9190610998565b610166565b60405161008e91906109de565b60405180910390f35b6100b160048036038101906100ac9190610a25565b61017e565b6040516100be9190610a61565b60405180910390f35b6100e160048036038101906100dc9190610ce0565b6101b1565b005b6100fd60048036038101906100f89190610a25565b610258565b60405161010f96959493929190610e74565b60405180910390f35b6101206103c1565b60405161012d9190610f04565b60405180910390f35b610150600480360381019061014b9190610a25565b6103e7565b60405161015d9190610a61565b60405180910390f35b60046020528060005260406000206000915090505481565b60036020528060005260406000206000915054906101000a900473ffffffffffffffffffffffffffffffffffffffff1681565b600260009054906101000a900473ffffffffffffffffffffffffffffffffffffffff1673ffffffffffffffffffffffffffffffffffffffff163373ffffffffffffffffffffffffffffffffffffffff1614610241576040517f08c379a000000000000000000000000000000000000000000000000000000000815260040161023890610f91565b60405180910390fd5b61024f86868686868661041a565b50505050505050565b6006818154811061026857600080fd5b906000526020600020906008020160009150905080600001549080600101549080600201805461029790610fe0565b80601f01602080910402602001604051908101604052809291908181526020018280546102c390610fe0565b80156103105780601f106102e557610100808354040283529160200191610310565b820191906000526020600020905b8154815290600101906020018083116102f357829003601f168201915b50505050509080600501805461032590610fe0565b80601f016020809104026020016040519081016040528092919081815260200182805461035190610fe0565b801561039e5780601f106103735761010080835404028352916020019161039e565b820191906000526020600020905b81548152906001019060200180831161038157829003601f168201915b5050505050908060060154908060070160009054906101000a900460ff16905086565b600260009054906101000a900473ffffffffffffffffffffffffffffffffffffffff1681565b60056020528060005260406000206000915054906101000a900473ffffffffffffffffffffffffffffffffffffffff1681565b606060005b6006805490508110156104a957876006828154811061044157610440611011565b5b90600052602060002090600802016000015403610496576040518060400160405280601481526020017f656c20706f6b656d6f6e20796120657869737465000000000000000000000000815250915050610754565b80806104a19061106f565b91505061041f565b506000600680549050905060006104c188888461075e565b905060066040518061010001604052808b81526020018481526020018a815260200189815260200188815260200187815260200183815260200186151581525090806001815401808255809150506001900390600052602060002090600802016000909190919091506000820151816000015560208201518160010155604082015181600201908051906020019061055a9291906107bf565b506060820151816003019080519060200190610577929190610845565b506080820151816004019080519060200190610594929190610845565b5060a08201518160050190805190602001906105b19291906107bf565b5060c0820151816006015560e08201518160070160006101000a81548160ff0219169083151502179055505050600060016006805490506105f291906110b7565b9050336003600083815260200190815260200160002060006101000a81548173ffffffffffffffffffffffffffffffffffffffff021916908373ffffffffffffffffffffffffffffffffffffffff160217905550610690600460003373ffffffffffffffffffffffffffffffffffffffff1673ffffffffffffffffffffffffffffffffffffffff1681526020019081526020016000205460016107a9565b600460003373ffffffffffffffffffffffffffffffffffffffff1673ffffffffffffffffffffffffffffffffffffffff168152602001908152602001600020819055507f2a3b3d2b43a550772655479e81354c5370c0f4f70d8cbfc7f520c957d7fdea17818b8b8b8b878b8d6040516107109897969594939291906111f7565b60405180910390a16040518060400160405280601b81526020017f706f6b656d6f6e2063726561646f20657869746f73616d656e7465000000000081525093505050505b9695505050505050565b60008084848460405160200161077693929190611291565b6040516020818303038152906040528051906020012060001c90506001548161079f9190611305565b9150509392505050565b600081836107b79190611336565b905092915050565b8280546107cb90610fe0565b90600052602060002090601f0160209004810192826107ed5760008555610834565b82601f1061080657805160ff1916838001178555610834565b82800160010185558215610834579182015b82811115610833578251825591602001919060010190610818565b5b50905061084191906108a5565b5090565b828054828255906000526020600020908101928215610894579160200282015b828111156108935782518290805190602001906108839291906107bf565b5091602001919060010190610865565b5b5090506108a191906108c2565b5090565b5b808211156108be5760008160009055506001016108a6565b5090565b5b808211156108e257600081816108d991906108e6565b506001016108c3565b5090565b5080546108f290610fe0565b6000825580601f106109045750610923565b601f01602090049060005260206000209081019061092291906108a5565b5b50565b6000604051905090565b600080fd5b600080fd5b600073ffffffffffffffffffffffffffffffffffffffff82169050919050565b60006109658261093a565b9050919050565b6109758161095a565b811461098057600080fd5b50565b6000813590506109928161096c565b92915050565b6000602082840312156109ae576109ad610930565b5b60006109bc84828501610983565b91505092915050565b6000819050919050565b6109d8816109c5565b82525050565b60006020820190506109f360008301846109cf565b92915050565b610a02816109c5565b8114610a0d57600080fd5b50565b600081359050610a1f816109f9565b92915050565b600060208284031215610a3b57610a3a610930565b5b6000610a4984828501610a10565b91505092915050565b610a5b8161095a565b82525050565b6000602082019050610a766000830184610a52565b92915050565b600080fd5b600080fd5b6000601f19601f8301169050919050565b7f4e487b7100000000000000000000000000000000000000000000000000000000600052604160045260246000fd5b610acf82610a86565b810181811067ffffffffffffffff82111715610aee57610aed610a97565b5b80604052505050565b6000610b01610926565b9050610b0d8282610ac6565b919050565b600067ffffffffffffffff821115610b2d57610b2c610a97565b5b610b3682610a86565b9050602081019050919050565b82818337600083830152505050565b6000610b65610b6084610b12565b610af7565b905082815260208101848484011115610b8157610b80610a81565b5b610b8c848285610b43565b509392505050565b600082601f830112610ba957610ba8610a7c565b5b8135610bb9848260208601610b52565b91505092915050565b600067ffffffffffffffff821115610bdd57610bdc610a97565b5b602082029050602081019050919050565b600080fd5b6000610c06610c0184610bc2565b610af7565b90508083825260208201905060208402830185811115610c2957610c28610bee565b5b835b81811015610c7057803567ffffffffffffffff811115610c4e57610c4d610a7c565b5b808601610c5b8982610b94565b85526020850194505050602081019050610c2b565b5050509392505050565b600082601f830112610c8f57610c8e610a7c565b5b8135610c9f848260208601610bf3565b91505092915050565b60008115159050919050565b610cbd81610ca8565b8114610cc857600080fd5b50565b600081359050610cda81610cb4565b92915050565b60008060008060008060c08789031215610cfd57610cfc610930565b5b6000610d0b89828a01610a10565b965050602087013567ffffffffffffffff811115610d2c57610d2b610935565b5b610d3889828a01610b94565b955050604087013567ffffffffffffffff811115610d5957610d58610935565b5b610d6589828a01610c7a565b945050606087013567ffffffffffffffff811115610d8657610d85610935565b5b610d9289828a01610c7a565b935050608087013567ffffffffffffffff811115610db357610db2610935565b5b610dbf89828a01610b94565b92505060a0610dd089828a01610ccb565b9150509295509295509295565b600081519050919050565b600082825260208201905092915050565b60005b83811015610e17578082015181840152602081019050610dfc565b83811115610e26576000848401525b50505050565b6000610e3782610ddd565b610e418185610de8565b9350610e51818560208601610df9565b610e5a81610a86565b840191505092915050565b610e6e81610ca8565b82525050565b600060c082019050610e8960008301896109cf565b610e9660208301886109cf565b8181036040830152610ea88187610e2c565b90508181036060830152610ebc8186610e2c565b9050610ecb60808301856109cf565b610ed860a0830184610e65565b979650505050505050565b6000610eee8261093a565b9050919050565b610efe81610ee3565b82525050565b6000602082019050610f196000830184610ef5565b92915050565b7f546869732066756e6374696f6e206973207265737472696374656420746f207460008201527f686520636f6e74726163742773206f776e657200000000000000000000000000602082015250565b6000610f7b603383610de8565b9150610f8682610f1f565b604082019050919050565b60006020820190508181036000830152610faa81610f6e565b9050919050565b7f4e487b7100000000000000000000000000000000000000000000000000000000600052602260045260246000fd5b60006002820490506001821680610ff857607f821691505b60208210810361100b5761100a610fb1565b5b50919050565b7f4e487b7100000000000000000000000000000000000000000000000000000000600052603260045260246000fd5b7f4e487b7100000000000000000000000000000000000000000000000000000000600052601160045260246000fd5b600061107a826109c5565b91507fffffffffffffffffffffffffffffffffffffffffffffffffffffffffffffffff82036110ac576110ab611040565b5b600182019050919050565b60006110c2826109c5565b91506110cd836109c5565b9250828210156110e0576110df611040565b5b828203905092915050565b600081519050919050565b600082825260208201905092915050565b6000819050602082019050919050565b600082825260208201905092915050565b600061113382610ddd565b61113d8185611117565b935061114d818560208601610df9565b61115681610a86565b840191505092915050565b600061116d8383611128565b905092915050565b6000602082019050919050565b600061118d826110eb565b61119781856110f6565b9350836020820285016111a985611107565b8060005b858110156111e557848403895281516111c68582611161565b94506111d183611175565b925060208a019950506001810190506111ad565b50829750879550505050505092915050565b60006101008201905061120d600083018b6109cf565b61121a602083018a6109cf565b818103604083015261122c8189610e2c565b905081810360608301526112408188611182565b905081810360808301526112548187611182565b905061126360a08301866109cf565b61127060c0830185610e65565b81810360e08301526112828184610e2c565b90509998505050505050505050565b600060608201905081810360008301526112ab8186610e2c565b905081810360208301526112bf8185611182565b90506112ce60408301846109cf565b949350505050565b7f4e487b7100000000000000000000000000000000000000000000000000000000600052601260045260246000fd5b6000611310826109c5565b915061131b836109c5565b92508261132b5761132a6112d6565b5b828206905092915050565b6000611341826109c5565b915061134c836109c5565b9250827fffffffffffffffffffffffffffffffffffffffffffffffffffffffffffffffff0382111561138157611380611040565b5b82820190509291505056fea26469706673582212208490ed5ff8660603022b1b2124df18c9755002f783e451d4ddb43e2b0a4c4fca64736f6c634300080e0033",
  "immutableReferences": {},
  "source": "// SPDX-License-Identifier: MIT\npragma solidity >=0.4.22 <0.9.0;\nimport \"../node_modules/@openzeppelin/contracts/utils/math/SafeMath.sol\";\nimport \"../node_modules/@openzeppelin/contracts/utils/Counters.sol\";\nimport \"../node_modules/@openzeppelin/contracts/utils/Strings.sol\";\n\ncontract PokemonFactory {\n    // uint public last_completed_migration;\n    uint dnaDigits = 42;\n    uint dnaModulus = 10 ** dnaDigits;\n    address payable public owner;\n    mapping (uint => address) public pokemonToOwner;\n    mapping (address => uint) public ownerPokemonCount;\n    mapping (uint => address) public zombieApprovals;\n    Pokemon[] public pokemons; \n    using SafeMath for uint256;\n\n    event NewPokemon (uint _id, uint _pokemonId, string _name, string[] _tipe, string[] _abilities, uint _randDna, bool _created, string _image);\n    // event Transfer(address indexed _from, address indexed _to, uint256 indexed _tokenId);\n    // event Approval(address indexed _owner, address indexed _approved, uint256 indexed _tokenId);\n    // event Ale(address _owner );\n    event Msg(string _msg, uint _id);\n\n    struct TypesPokemons {\n        string types1;\n        string types2;\n    }\n\n    struct Pokemon {\n        uint pokemonId;\n        uint indexArray;\n        string name;\n        string[] tipes;\n        string[] abilities;\n        string image;\n        uint randDna;\n        bool created;\n    }\n\n    constructor() payable {\n        owner = payable(msg.sender);\n    }\n\n    modifier onlyOwner() {\n        require(msg.sender == owner, \"This function is restricted to the contract's owner\");\n        _;\n    }\n\n    function _createPokemon(uint _pokemonId, string memory _name, string[] memory _tipe, string[] memory _abilities, string memory _image, bool _created) internal returns(string memory){\n        for (uint256 i = 0; i < pokemons.length; i++) {\n            if (pokemons[i].pokemonId == _pokemonId) {\n                return 'el pokemon ya existe';\n            } \n        }\n        uint index = pokemons.length;\n        uint _randDna = _generateRandomDna(_name, _tipe, index);\n        pokemons.push(Pokemon(_pokemonId, index, _name, _tipe, _abilities, _image, _randDna, _created));\n        uint id = pokemons.length - 1;\n        pokemonToOwner[id] = msg.sender; //asigna el dueo al zombie\n        ownerPokemonCount[msg.sender] = SafeMath.add(ownerPokemonCount[msg.sender],1); //suma un pokemon al dueo\n        emit NewPokemon(id, _pokemonId, _name, _tipe, _abilities, _randDna, _created, _image);\n        return 'pokemon creado exitosamente';\n    }\n\n    function _generateRandomDna(string memory _name, string[] memory _tipe, uint _index) private view returns(uint) {\n        uint rand = uint(keccak256(abi.encode(_name, _tipe, _index)));\n        return rand % dnaModulus;\n    }\n\n    function createRandomPokemon(uint _pokemonId, string memory _name, string[] memory _tipe, string[] memory _abilities, string memory _image, bool _created) public onlyOwner {\n        _createPokemon(_pokemonId, _name, _tipe, _abilities, _image, _created);\n    }\n}\n\n//let instance = await PokemonFactory.deployed()\n\n// instance.createRandomPokemon(1, 'pikachu', 'electrico', 'imagen de rata');\n\n// instance.createRandomPokemon(2, 'squirtle', 'agua', 'imagen squirtle');\n\n// instance.pokemons(0);\n// instance.pokemons(1);\n\n// instance.pokemonToOwner(0);\n// instance.pokemonToOwner(1);\n\n// instance.ownerPokemonCount(accounts[0]);\n\n//let instance2 = await PokemonHelper.deployed()\n\n\n\n\n",
  "sourcePath": "/Users/alejandrorusinoff/Desktop/Trabajo/Practicas/MarketToken/truffle/contracts/PokemonFactory.sol",
  "compiler": {
    "name": "solc",
    "version": "0.8.14+commit.80d49f37.Emscripten.clang"
  },
  "schemaVersion": "3.4.7",
  "updatedAt": "2023-04-23T15:35:15.362Z",
  "networkType": "ethereum",
  "devdoc": {
    "kind": "dev",
    "methods": {},
    "version": 1
  },
  "userdoc": {
    "kind": "user",
    "methods": {},
    "version": 1
  }
}